:100000000C9434000C94410B0C946E0B0C94510026
:100010000C9451000C9451000C9451000C9451001C
:100020000C9451000C9451000C9451000C94280332
:100030000C9451000C9451000C9451000C945100FC
:100040000C9451000C9451000C9451000C945100EC
:100050000C9451000C9451000C9451000C945100DC
:100060000C9451000C94510011241FBECFEFD8E026
:10007000DEBFCDBF11E0A0E0B1E0ECE9F7E102C0E6
:1000800005900D92A633B107D9F727E0A6E3B1E0BA
:1000900001C01D92AB38B207E1F70E9418010C9421
:1000A000CC0B0C940000ECE7F0E08081806480834E
:1000B000EAE7F0E0808180688083808187608083C8
:1000C0000895ECE7F0E09081892B8083EAE7F0E087
:1000D000808180648083808186FDFDCF809178005F
:1000E0009091790008958093BB0084E88093BC00D0
:1000F000ECEBF0E080818823ECF7089584EA8093AC
:10010000BC00ECEBF0E080818823ECF3E9EBF0E05D
:100110008081887F8830E1F708951092B90087E4E4
:100120008093B80084E08093BC000895CF93DF9360
:100130001F92CDB7DEB70E9453000F2EF4EFEF2EC3
:10014000FF24F394F02D0FEF13E080E090E00E9485
:100150006100282F2E9DC0012F9D900D1124B80104
:100160000E949B0B6068698321E040E050E0BE0183
:100170006F5F7F4F80918707909188070E94BE0430
:1001800084E690E00E940709E0CFCF93DF931F92AF
:10019000CDB7DEB781E6898310E021E040E050E092
:1001A000BE016F5F7F4F80918707909188070E9403
:1001B000BE0489818A3711F08F5F01C0812F898346
:1001C0008AE590E00E940709E8CFCF93DF931F9262
:1001D000CDB7DEB72FEF89E698E1215080409040FF
:1001E000E1F700C000000E948D000E947E0082E0C6
:1001F00090E00E94730080918707909188070E9489
:100200002206882381F020E040E050E0BE016F5FCD
:100210007F4F80918707909188070E945F058981B1
:1002200090E00E94730088E290E00E940709E3CF0B
:10023000F894A12CB12CC12CD12CE12CF12C01E093
:1002400020E030E040E051E064E071E085EE90E0D5
:100250000E94800602E020E030E040E051E06DE0E6
:1002600071E085EC90E00E94800620E030E040E004
:1002700051E06CE171E086E990E00E94800678949C
:100280000E949307FFCFFC010396928381832FEF97
:100290003FEF3483238396838583908787831082FF
:1002A0000895FC01118610860895CF93DF939C0179
:1002B000FB01DC011196CD91DC911297D383C283AF
:1002C0008C819D81958384838C819D81DC01139633
:1002D0007C936E9312977D836C8331872087F9011D
:1002E00080818F5F8083DF91CF910895CF93DF93DB
:1002F000EB01488159814F3F2FEF520721F4FC0158
:10030000A781B0850DC0DC01139601C0DF011296F4
:10031000ED91FC9113972081318142175307B0F77B
:100320001296ED91FC911397FB83EA83D583C483E6
:10033000BD83AC831396DC93CE93129799878887FD
:10034000FC0120812F5F2083DF91CF910895CF930F
:10035000DF93FC01A085B185C281D3818481958121
:100360009D838C83C481D581828193819B838A8381
:1003700011968D919C911297E817F90731F48481B9
:10038000958112969C938E931197118610868C916D
:1003900081508C93DF91CF91089531E1FC0130833E
:1003A000319722E220833197A3E3A08331976083C2
:1003B0003197708331971082319760E8608331976D
:1003C0001082319762E06083319763E060833197F8
:1003D00064E06083319765E06083319766E0608315
:1003E000319767E06083319768E06083319769E017
:1003F0006083319760E1608331973083319732E1D8
:100400003083319733E13083319734E13083319752
:1004100035E13083319736E13083319737E13083EE
:10042000319738E13083319739E13083319730E2C9
:100430003083319731E2308331972083319723E243
:1004400020833197408331975083319726E2208370
:10045000319727E22083319728E22083319729E2E0
:100460002083319720E32083319721E320838697EF
:100470000895109289008CE7809388008BE0809328
:100480008100EFE6F0E0808182608083A0917D07AB
:10049000B0917E07CD91CDBFDD91DEBFFF91EF9191
:1004A000DF91CF91BF91AF919F918F917F916F918C
:1004B0005F914F913F912F911F910F91FF90EF907E
:1004C000DF90CF90BF90AF909F908F907F906F9074
:1004D0005F904F903F902F901F900F900FBE0F9006
:1004E000089581E008950F920FB6F8940F921F922D
:1004F00011242F923F924F925F926F927F928F9230
:100500009F92AF92BF92CF92DF92EF92FF920F93A2
:100510001F932F933F934F935F936F937F938F938B
:100520009F93AF93BF93CF93DF93EF93FF93A091EC
:100530007D07B0917E070DB60D920EB60D920E940A
:100540006409A0917D07B0917E07CD91CDBFDD916B
:10055000DEBFFF91EF91DF91CF91BF91AF919F915E
:100560008F917F916F915F914F913F912F911F914B
:100570000F91FF90EF90DF90CF90BF90AF909F9042
:100580008F907F906F905F904F903F902F901F9033
:100590000F900FBE0F9008950F920FB6F8940F9220
:1005A0001F9211242F923F924F925F926F927F92EF
:1005B0008F929F92AF92BF92CF92DF92EF92FF9273
:1005C0000F931F932F933F934F935F936F937F935B
:1005D0008F939F93AF93BF93CF93DF93EF93FF934B
:1005E000A0917D07B0917E070DB60D920EB60D92CB
:1005F0000E94C80781110E946409A0917D07B091F3
:100600007E07CD91CDBFDD91DEBFFF91EF91DF91F0
:10061000CF91BF91AF919F918F917F916F915F919A
:100620004F913F912F911F910F91FF90EF90DF908D
:10063000CF90BF90AF909F908F907F906F905F9082
:100640004F903F902F901F900F900FBE0F900895E6
:100650000E94CC0218950F931F93CF93DF93EC0168
:100660000E94C2078091360181111DC0EBE3F1E0C9
:1006700080E491E09183808313821282E7E3F1E0CA
:100680008BED95E09383828311821082AFE3B1E01A
:1006900014969C938E9313971296FC93EE93119756
:1006A00081E080933601209709F45FC09E012C5FA2
:1006B0003F4F2396CA3DD54008F05AC0E0913B0118
:1006C000F0913C01ABE3B1E002C0DF01FC018281AB
:1006D00093818217930720F4808191810097A9F775
:1006E000C1E0E733FC0709F446C0CD91DC911197D6
:1006F0008E010C5F1F4F808191818D939C9382812D
:100700009381821B930B8930910510F1BF01620F19
:10071000731FDB0113969C938E931297338322836E
:1007200012964D915C9113978BE391E001C0CD013E
:10073000EC01A881B98112962D913C911397241751
:100740003507A8F3EB01B983A883DC016D937C9393
:10075000809100019091010122813381821B930BD2
:10076000909301018093000108C000E010E005C0F3
:1007700000E010E002C000E010E00E948508C8011F
:10078000DF91CF911F910F9108950F931F93CF93F6
:10079000DF93009741F1EC018C01045011090E9494
:1007A000C207F80142815381ABE3B1E001C0DF0130
:1007B000ED91FC9111972281338124173507B8F30D
:1007C0002497F983E8830D931C93209100013091C5
:1007D00001018A819B81820F931F90930101809375
:1007E00000010E948508DF91CF911F910F9108951C
:1007F0001F93CF93DF93EC01142F4C8D41110CC04C
:1008000088819981892B09F045C08A819B810E944A
:10081000EF0A1B821A8245C0111117C050E08C816B
:100820009D810E94C30B2C8D8C819D81820F911D17
:100830009D838C832A813B818217930768F188818D
:1008400099819D838C8380E02CC050E08E819F81B4
:100850000E94C30B8C8D90E09195819591092E811A
:100860003F81280F391F3F832E83488159812417E8
:10087000350730F42A813B81820F931F9F838E833B
:10088000123061F48A8D882359F08A8D81508A8FC5
:1008900080E007C080E005C080E003C080E001C0C8
:1008A00080E09A8D9F5F9A8FDF91CF911F9108957D
:1008B000FC01448D4423A9F050E026813781240FA8
:1008C000351F37832683828193812817390720F0CB
:1008D0008081918197838683CB01668177810E9495
:1008E000C30B08950F931F93CF93DF93EC010FB6C3
:1008F000F8940F928E8D1816BCF48989811105C069
:1009000013C08989811104C00FC08E010F5E1F4F73
:10091000C8010E94FD0981110E94890A8E8D8150B3
:100920008E8F8E8D18166CF38FEF8E8F0F900FBEFB
:100930000FB6F8940F928D8D1816BCF4888581112E
:1009400005C013C08885811104C00FC08E01085FE7
:100950001F4FC8010E94FD0981110E94890A8D8DD7
:1009600081508D8F8D8D18166CF38FEF8D8F0F90BA
:100970000FBEDF91CF911F910F9108959F92AF927B
:10098000BF92CF92DF92EF92FF920F931F93CF937C
:10099000DF9300D000D01F92CDB7DEB78C016B0182
:1009A0005D834C83A22EB12C992493947C0188E022
:1009B000E80EF11C0FB6F8940F92F801928D838D1A
:1009C000981718F0F2E0AF1219C04A2DB601C8010D
:1009D0000E94F803F8019189992349F0C8014196D2
:1009E0000E94FD09813031F40E94730203C081111D
:1009F0000E9473020F900FBE81E050C08C819D81D8
:100A0000892B21F40F900FBE80E048C0B11005C0C3
:100A1000CE0101960E94450AB92C0F900FBE0E948C
:100A2000C2070FB6F8940F92F801858D8F3F09F435
:100A3000158EF801868D8F3F09F4168E0F900FBE2C
:100A4000BE016C5F7F4FCE0101960E94500A81115A
:100A50001FC00FB6F8940F92F801928D0F900FBE41
:100A6000838D98130FC06C817D81C7010E94D109CD
:100A7000C8010E9472040E94850881119BCF0E94C8
:100A8000730298CFC8010E9472040E94850892CF19
:100A9000C8010E9472040E94850880E00F900F90A8
:100AA0000F900F900F90DF91CF911F910F91FF90BA
:100AB000EF90DF90CF90BF90AF909F9008959F925E
:100AC000AF92BF92CF92DF92EF92FF920F931F935C
:100AD000CF93DF9300D000D01F92CDB7DEB78C014B
:100AE0006B015D834C83922EB12CAA24A3947C01CC
:100AF00081E1E80EF11C0FB6F8940F92F801828D97
:100B0000882399F1E680F780B601C8010E94580455
:100B100091101AC0F801828D8150828F808191815D
:100B2000892B29F40E942F0BF80193838283F8010B
:100B300080858823B1F0C80108960E94FD098130A4
:100B400081F40E9473020DC0F801F782E682818968
:100B5000882339F0C80141960E94FD0981110E9445
:100B600073020F900FBE81E05CC08C819D81892B48
:100B700021F40F900FBE80E054C0B11005C0CE012B
:100B800001960E94450ABA2C0F900FBE0E94C20720
:100B90000FB6F8940F92F801858D8F3F09F4158EEA
:100BA000F801868D8F3F09F4168E0F900FBEBE019F
:100BB0006C5F7F4FCE0101960E94500A81112BC0BD
:100BC0000FB6F8940F92F801828D0F900FBE81112D
:100BD0001CC080819181892B49F40FB6F8940F9243
:100BE000828193810E948D0A0F900FBE6C817D815E
:100BF000C7010E94D109C8010E9472040E948508A1
:100C0000811179CF0E94730276CFC8010E947204CD
:100C10000E94850870CFC8010E9472040E94850856
:100C200080E00F900F900F900F900F90DF91CF9179
:100C30001F910F91FF90EF90DF90CF90BF90AF90FA
:100C40009F9008950FB6F8940F92FC01828D0F903B
:100C50000FBE0895E0914507F0914607808181110C
:100C600007C08FEF9FEF90930301809302010895D7
:100C7000E0914507F09146070580F681E02D06805A
:100C8000F781E02D8281938190930301809302018B
:100C90000895CF93DF93EC01E0917D07F0917E07FB
:100CA000938382838091220790912307C817D907E5
:100CB00068F460917D0770917E0780914307909161
:100CC00044076E5F7F4F0E94760117C060917D07D9
:100CD00070917E0780914507909146076E5F7F4F28
:100CE0000E9476018091020190910301C817D907F3
:100CF00020F4D0930301C0930201DF91CF910895B6
:100D00004F925F926F927F928F929F92AF92BF921B
:100D1000CF92DF92EF92FF920F931F93CF93DF93C7
:100D20004C01EB015A012901C114D10439F4CA0163
:100D30000E942B036C01892B09F4E3C088E290E048
:100D40000E942B033C01009779F0FC01D08EC78AEA
:100D5000F1E0AF1AB108CA0CDB1C8881F301818F66
:100D60008881811105C014C0C6010E94C503C9C095
:100D7000D3015A96FE0131969E01285F3F4FEF0145
:100D800081918D938881882319F0E217F307B9F7D1
:100D9000F30110A2102F043008F013E0F301168BBA
:100DA00011A312A2E3012296CE010E945101C301B8
:100DB0000C960E945101F3017186608684E090E0F8
:100DC000811B910995878487738A628A13A214A272
:100DD00015A216A217A2A201B401C6010E94CD015C
:100DE000F30191838083E114F10419F0F70171821A
:100DF00060820FB6F8940F92809124078F5F8093E2
:100E0000240780917D0790917E07892BD1F5709200
:100E10007E0760927D0780912407813009F040C0F1
:100E200089E597E00E94430182E697E00E94430132
:100E30008BE697E00E94430184E797E00E9443011C
:100E400080E597E00E94430187E497E00E94430118
:100E50008AE397E00E94430181E397E00E94430107
:100E600087E297E00E94430180E597E09093460770
:100E70008093450787E497E0909344078093430766
:100E80000FC08091200781110BC0E0917D07F09188
:100E90007E078689081720F070927E0760927D0792
:100EA00080911C078F5F80931C07F30186899091C6
:100EB0002107981710F48093210790E09C01220FDE
:100EC000331F220F331F220F331F820F931FBE01C8
:100ED000875A984F0E9455010F900FBE80912007AE
:100EE000882359F0E0917D07F0917E07868980176D
:100EF00030F40E94730281E005C081E003C081E00C
:100F000001C08FEFDF91CF911F910F91FF90EF9074
:100F1000DF90CF90BF90AF909F908F907F906F9019
:100F20005F904F900895AF92BF92CF92DF92EF9271
:100F3000FF920F93A12CB12CC12CD12C0F2EF5E2D6
:100F4000EF2EF7E0FF2EF02D00E020E030E045E549
:100F500050E060E371E087E299E00E948006813012
:100F600049F4F894809320071092230710922207E7
:100F70000E9439020F91FF90EF90DF90CF90BF90C9
:100F8000AF90089580911B078F5F80931B07089592
:100F9000CF92DF92EF92FF920F931F93CF93DF9345
:100FA00080911B0781119BC080912207909123079C
:100FB00001969093230780932207E0902207F090F8
:100FC0002307E114F104B9F4809145079091460795
:100FD00020914307309144073093460720934507FB
:100FE000909344078093430780911D078F5F809300
:100FF0001D070E942A068091020190910301E816C4
:10100000F90610F4D12C53C0D12CCC24C394E09118
:101010004507F09146078081811107C08FEF9FEF50
:10102000909303018093020142C0E0914507F09143
:1010300046070580F681E02DC681D7818A819B8194
:10104000E816F90628F490930301809302012FC05B
:101050008E010E5F1F4FC8010E94A7018C899D89D8
:10106000892B21F0CE010C960E94A7018E899091C8
:101070002107981710F48093210790E09C01220F1C
:10108000331F220F331F220F331F820F931FB8010C
:10109000875A984F0E945501E0917D07F0917E0795
:1010A0009E898689981708F4B2CFDC2CB0CFE091E6
:1010B0007D07F0917E07868990E0FC01EE0FFF1F0F
:1010C000EE0FFF1FEE0FFF1F8E0F9F1FFC01E75A51
:1010D000F84F8081823048F0DD24D39406C080919F
:1010E0001F078F5F80931F07D12C80911E078823D5
:1010F00011F0DD24D3948D2DDF91CF911F910F91AD
:10110000FF90EF90DF90CF900895DF92EF92FF92E3
:101110000F931F93CF93DF930FB6F8940F928091A4
:101120001B07815080931B0780911B07811162C0B0
:1011300080912407811133C060C0D7011596ED91CD
:10114000FC911697C681D781CE010C960E94A7010B
:101150008E010E5F1F4FC8010E94A7018E899091DA
:101160002107981710F48093210790E09C01220F2B
:10117000331F220F331F220F331F820F931FB8011B
:10118000875A984F0E945501E0917D07F0917E07A4
:101190009E898689981758F0D0921E0708C00F2E96
:1011A000FAE3EF2EF7E0FF2EF02DDD24D394F701C4
:1011B00080818111C2CF80911F07882399F080918F
:1011C0001F07882379F0C1E00E94C8078111C093EE
:1011D0001E0780911F07815080931F0780911F0772
:1011E0008111F2CF80911E07813031F40E94730289
:1011F00081E003C080E001C080E00F900FBEDF916E
:10120000CF911F910F91FF90EF90DF900895CF93B2
:10121000DF93EC01892BB1F00E94C2078091220775
:1012200090912307C80FD91F80917D0790917E0769
:1012300002960E94A701CE010E9449060E948508DD
:10124000811102C00E947302DF91CF91089501E3E2
:1012500017E00F2EF9E5EF2EF7E0FF2EF02D29C055
:101260000E94C207D801CC910E948508CC2309F1C5
:101270000FB6F8940F92D8011596ED91FC91169740
:10128000C681D781CE0102960E94A70180912407D2
:1012900081508093240780913007815080933007DC
:1012A0000F900FBE8F89988D0E94C503CE010E94BA
:1012B000C503809130078111D3CFF701808182303F
:1012C000C0F30E947302F5CF80911B07882321F0A1
:1012D00081E080931E07089510921E0780912107D8
:1012E00090E0FC01EE0FFF1FEE0FFF1FEE0FFF1F40
:1012F0008E0F9F1FFC01E75AF84F8081811117C0A4
:10130000809121078150809321078091210790E0EF
:10131000FC01EE0FFF1FEE0FFF1FEE0FFF1F8E0FE2
:101320009F1FFC01E75AF84F8081882349F3809181
:10133000210790E09C01220F331F220F331F220F41
:10134000331F280F391FD901A75AB84F1196ED91B5
:10135000FC9112970280F381E02D1296FC93EE939C
:101360001197245A384FE217F30729F42281338169
:10137000FD0132832183FC01EE0FFF1FEE0FFF1FE3
:10138000EE0FFF1F8E0F9F1FFC01E75AF84F0180E1
:10139000F281E02D8681978190937E0780937D076F
:1013A0000895CF93DF93EB0160917D0770917E07E5
:1013B000645F7F4F0E94760180917D0790917E0748
:1013C00002960E94A701CF3F8FEFD80759F4609192
:1013D0007D0770917E076E5F7F4F87E297E00E94E6
:1013E000550108C080912207909123078C0F9D1F03
:1013F0000E944906DF91CF9108950F931F93CF93D9
:10140000DF93DC011596ED91FC911697C681D7818B
:101410008E01045F1F4FC8010E94A70180911B0726
:1014200081111CC00A501109C8010E94A7018E89B0
:1014300090912107981710F48093210790E09C0168
:10144000220F331F220F331F220F331F820F931FD0
:10145000B801875A984F0E94550105C0B8018AE328
:1014600097E00E945501E0917D07F0917E079E89EB
:101470008689891720F481E080931E0701C080E0EF
:10148000DF91CF911F910F91089520911D07FC01CD
:1014900020832091220730912307328321830895EE
:1014A0000FB6F8940F924091220750912307DB0169
:1014B0002D913C912F3FBFEF3B0719F1E0911D07A4
:1014C000DC01FC91FE1739F01196ED91FC91129719
:1014D0004E175F07C0F4DC011196ED91FC91129755
:1014E000DA01AE1BBF0BA217B30778F4DB01E41BD4
:1014F000F50B2E0F3F1F2D933C930E94450A80E071
:1015000005C080E003C081E001C081E00F900FBE04
:10151000089581E080931E0708950F931F93CF9342
:10152000DF93FC01892B09F455C02689A0917D0722
:10153000B0917E0756968C91281708F04BC0848591
:101540009585992364F0A0917D07B0917E0756960A
:101550003C9184E090E0831B91099587848730E07B
:10156000C901880F991F880F991F880F991F280F8D
:10157000391F275A384F828593858217930719F5AB
:101580008F01EF012296CE010E94A701E0917D0715
:10159000F0917E078689F801868B90912107981734
:1015A00010F48093210790E09C01220F331F220F3B
:1015B000331F220F331F820F931FBE01875A984F8C
:1015C0000E94550107C0A0917D07B0917E075696F5
:1015D0008C91868BDF91CF911F910F9108950F937E
:1015E0001F93CF93DF93FC01892B79F182A1815066
:1015F00082A3268991A1291751F181112AC0EF01F7
:101600008F010E5F1F4FC8010E94A70189A18E8B19
:1016100024E030E0281B31093D872C879091210779
:10162000981710F48093210790E09C01220F331F3C
:10163000220F331F220F331F820F931FB801875AC7
:10164000984F0E94550181E005C080E003C080E012
:1016500001C080E0DF91CF911F910F91089580919B
:101660007D0790917E07892B39F0E0917D07F091FD
:101670007E0782A18F5F82A380917D0790917E0774
:1016800008951F920F920FB60F9211242F933F933C
:101690004F935F936F937F938F939F93AF93BF937A
:1016A000EF93FF9380917F0790918007892B29F01A
:1016B000E0917F07F09180070995FF91EF91BF912D
:1016C000AF919F918F917F916F915F914F913F91DA
:1016D0002F910F900FBE0F901F9018951F920F9291
:1016E0000FB60F9211242F933F934F935F936F93F5
:1016F0007F938F939F93AF93BF93EF93FF938091CB
:10170000810790918207892B29F0E0918107F09160
:1017100082070995FF91EF91BF91AF919F918F91B2
:101720007F916F915F914F913F912F910F900FBEDD
:101730000F901F90189597FB072E16F4009407D072
:1017400077FD09D00E94AF0B07FC05D03EF49095C1
:1017500081959F4F0895709561957F4F0895AA1BBD
:10176000BB1B51E107C0AA1FBB1FA617B70710F08C
:10177000A61BB70B881F991F5A95A9F780959095BE
:10178000BC01CD010895FB01DC0102C001900D9266
:0C17900041505040D8F70895F894FFCF66
:10179C00DB05FFFF7461736B5F4932430074617347
:1017AC006B5F47656E657261746F72007461736B09
:1017BC005F41444300747275650066616C7365002B
:0617CC0049444C450000F9
:00000001FF
