:100000000C9434000C94CD0D0C94FA0D0C9451000A
:100010000C9451000C9451000C9451000C9451001C
:100020000C9451000C9451000C948B000C945A04C5
:100030000C9473000C9451000C9451000C945100DA
:100040000C9451000C9451000C9451000C945100EC
:100050000C9451000C9451000C9451000C945100DC
:100060000C9451000C94510011241FBECFEFD8E026
:10007000DEBFCDBF11E0A0E0B1E0E8E2F0E202C0F7
:1000800005900D92AE33B107D9F727E0AEE3B1E0AA
:1000900001C01D92A23AB207E1F70E9429020C9416
:1000A00012100C940000ECE7F0E080818064808303
:1000B000EAE7F0E0808180688083808187608083C8
:1000C0000895ECE7F0E09081892B8083EAE7F0E087
:1000D000808180648083808186FDFDCF809178005F
:1000E0009091790008951F920F920FB60F921124EC
:1000F0008F939F9395B182E0982795B994E09A9554
:10010000F1F795B1892785B99F918F910F900FBE17
:100110000F901F9018951F920F920FB60F921124F7
:10012000CF92DF92EF92FF922F933F934F935F9383
:100130006F937F938F939F93AF93BF93CF93DF93EF
:10014000EF93FF938091810086FF0EC0E1E8F0E01D
:1001500080818F7B8083809186009091870090932F
:1001600097078093960742C0E1E8F0E080818064C1
:100170008083609186007091870070938D076093F3
:100180008C078091960790919707EB01C81BD90BBC
:10019000D0939507C093940760919207709193074D
:1001A00080E090E00E94E60E6B017C01BE01DD0F55
:1001B000880B990B0E94E80E9B01AC01C701B601A8
:1001C0000E94740F20E030E040E251E40E94740F7E
:1001D00020E030E041E154E40E943E0E60938E073F
:1001E00070938F078093900790939107FF91EF9101
:1001F000DF91CF91BF91AF919F918F917F916F913F
:100200005F914F913F912F91FF90EF90DF90CF90B2
:100210000F900FBE0F901F901895219AE1E8F0E023
:100220008081806880838081836080838081886012
:100230008083AFE6B0E08C9184628C93808180648F
:1002400080838CE594E490938B0080938A0084E013
:1002500090E090939307809392077894089560912B
:100260008E0770918F0780919007909191070E945F
:10027000B00ECB0108958093BB0084E88093BC004E
:10028000ECEBF0E080818823ECF7089584EA80931A
:10029000BC00ECEBF0E080818823ECF3E9EBF0E0CC
:1002A0008081887F8830E1F708951092B90087E453
:1002B0008093B80084E08093BC00089590913E0143
:1002C00081E0911180E080933E0180913E01806841
:1002D00080933E0121E04AE050E06EE371E08091BE
:1002E0009E0790919F070E94910680919807909198
:1002F00099070E944C090895CF93DF9300D0CDB7A2
:10030000DEB70E940D011A8219820E942F010E94FD
:10031000B00E643171051CF07A8369830FC06F736E
:100320007A83698321E04AE050E0BE016F5F7F4F2E
:1003300080919E0790919F070E94F00582E390E0D4
:100340000E94210BE2CFCF93DF931F92CDB7DEB790
:100350000E9453000F2EF4EFEF2EFF24F394F02DA4
:100360000FEF13E080E00E946100282F2E9DC00156
:100370002F9D900D1124B8010E94E10F6F3110F4F0
:1003800069830FC06F736064698321E04AE050E0C5
:10039000BE016F5F7F4F80919E0790919F070E94E3
:1003A000F00582E390E00E94210BDCCFCF93DF9336
:1003B0001F92CDB7DEB72FEF89E698E1215080403C
:1003C0009040E1F700C000000E9455010E944601E4
:1003D00082E00E943B0180919E0790919F070E94BE
:1003E0008C07882379F020E04AE050E0BE016F5F7F
:1003F0007F4F80919E0790919F070E94C906898137
:100400000E943B0188E290E00E94210BE4CF8091A2
:100410003E0181110DC08091A0079091A1070E941B
:10042000EB0B80919A0790919B070E94EB0B0CC0FD
:100430008091A0079091A1070E94FD0880919A07E2
:1004400090919B070E94FD0880E090E00E94EB0BDA
:100450000895F89443E050E06EE571E080E00E947A
:10046000AA0DE0909C07F0909D07A12CB12CC12C07
:10047000D12C04E020E030E040E051E064E071E0A5
:1004800086ED91E00E94EA07E0909A07F0909B07C2
:1004900001E020E030E040E051E06DE071E083EA0F
:1004A00091E00E94EA07E090A007F090A10700E029
:1004B00020E030E040E051E066E171E08CE791E05F
:1004C0000E94EA07E0909807F090990703E020E087
:1004D00030E040E051E061E271E087E092E00E94AC
:1004E000EA0778940E94AD09FFCFFC01039692833E
:1004F00081832FEF3FEF3483238396838583908717
:10050000878310820895FC01118610860895CF9389
:10051000DF939C01FB01DC011196CD91DC911297D8
:10052000D383C2838C819D81958384838C819D81BB
:10053000DC0113967C936E9312977D836C833187D5
:100540002087F90180818F5F8083DF91CF910895AB
:10055000CF93DF93EB01488159814F3F2FEF520733
:1005600021F4FC01A781B0850DC0DC01139601C008
:10057000DF011296ED91FC91139720813181421792
:100580005307B0F71296ED91FC911397FB83EA8322
:10059000D583C483BD83AC831396DC93CE9312972B
:1005A00099878887FC0120812F5F2083DF91CF917D
:1005B0000895CF93DF93FC01A085B185C281D381DB
:1005C000848195819D838C83C481D581828193812F
:1005D0009B838A8311968D919C911297E817F90756
:1005E00031F48481958112969C938E931197118694
:1005F00010868C9181508C93DF91CF91089531E1D9
:10060000FC013083319722E220833197A3E3A0835A
:10061000319760833197708331971082319760E80A
:10062000608331971082319762E06083319763E095
:100630006083319764E06083319765E06083319730
:1006400066E06083319767E06083319768E060839C
:10065000319769E06083319760E16083319730833F
:10066000319732E13083319733E13083319734E190
:100670003083319735E13083319736E130833197DC
:1006800037E13083319738E13083319739E1308376
:10069000319730E23083319731E2308331972083D4
:1006A000319723E2208331974083319750833197EC
:1006B00026E22083319727E22083319728E22083A6
:1006C000319729E22083319720E32083319721E37A
:1006D000208386970895109289008CE78093880084
:1006E0008BE080938100EFE6F0E080818260808380
:1006F000A0918607B0918707CD91CDBFDD91DEBF78
:10070000FF91EF91DF91CF91BF91AF919F918F9129
:100710007F916F915F914F913F912F911F910F9119
:10072000FF90EF90DF90CF90BF90AF909F908F9011
:100730007F906F905F904F903F902F901F900F9001
:100740000FBE0F90089581E008950F920FB6F894B0
:100750000F921F9211242F923F924F925F926F92AD
:100760007F928F929F92AF92BF92CF92DF92EF9241
:10077000FF920F931F932F933F934F935F936F932A
:100780007F938F939F93AF93BF93CF93DF93EF9319
:10079000FF93A0918607B09187070DB60D920EB614
:1007A0000D920E947E0BA0918607B0918707CD9194
:1007B000CDBFDD91DEBFFF91EF91DF91CF91BF9172
:1007C000AF919F918F917F916F915F914F913F91E9
:1007D0002F911F910F91FF90EF90DF90CF90BF90DE
:1007E000AF909F908F907F906F905F904F903F90D1
:1007F0002F901F900F900FBE0F9008950F920FB67D
:10080000F8940F921F9211242F923F924F925F9271
:100810006F927F928F929F92AF92BF92CF92DF9210
:10082000EF92FF920F931F932F933F934F935F93FA
:100830006F937F938F939F93AF93BF93CF93DF93E8
:10084000EF93FF93A0918607B09187070DB60D92A5
:100850000EB60D920E94E20981110E947E0BA091BA
:100860008607B0918707CD91CDBFDD91DEBFFF91A7
:10087000EF91DF91CF91BF91AF919F918F917F9138
:100880006F915F914F913F912F911F910F91FF9029
:10089000EF90DF90CF90BF90AF909F908F907F9020
:1008A0006F905F904F903F902F901F900F900FBED2
:1008B0000F9008950E94FE0318950F931F93CF93F6
:1008C000DF93EC010E94DC0980913F0181111DC082
:1008D000E4E4F1E089E491E0918380831382128261
:1008E000E0E4F1E08BED95E0938382831182108246
:1008F000A8E4B1E014969C938E9313971296FC9300
:10090000EE93119781E080933F01209709F45FC037
:100910009E012C5F3F4F2396CA3DD54008F05AC038
:10092000E0914401F0914501A4E4B1E002C0DF018F
:10093000FC01828193818217930720F48081918149
:100940000097A9F7C1E0E034FC0709F446C0CD9157
:10095000DC9111978E010C5F1F4F808191818D93E7
:100960009C9382819381821B930B8930910510F1B6
:10097000BF01620F731FDB0113969C938E93129736
:100980003383228312964D915C91139784E491E016
:1009900001C0CD01EC01A881B98112962D913C9145
:1009A000139724173507A8F3EB01B983A883DC015B
:1009B0006D937C938091000190910101228133819C
:1009C000821B930B909301018093000108C000E00B
:1009D00010E005C000E010E002C000E010E00E945E
:1009E0009F0AC801DF91CF911F910F9108950F9336
:1009F0001F93CF93DF93009741F1EC018C010450DA
:100A000011090E94DC09F80142815381A4E4B1E09C
:100A100001C0DF01ED91FC911197228133812417F0
:100A20003507B8F32497F983E8830D931C9320913D
:100A30000001309101018A819B81820F931F909365
:100A40000101809300010E949F0ADF91CF911F91C5
:100A50000F9108951F93CF93DF93EC01142F4C8DCA
:100A600041110CC088819981892B09F045C08A8188
:100A70009B810E94580D1B821A8245C0111117C01C
:100A800050E08C819D810E9409102C8D8C819D816C
:100A9000820F911D9D838C832A813B81821793074E
:100AA00068F1888199819D838C8380E02CC050E01F
:100AB0008E819F810E9409108C8D90E09195819587
:100AC00091092E813F81280F391F3F832E83488152
:100AD00059812417350730F42A813B81820F931FF7
:100AE0009F838E83123061F48A8D882359F08A8D1A
:100AF00081508A8F80E007C080E005C080E003C09D
:100B000080E001C080E09A8D9F5F9A8FDF91CF9146
:100B10001F910895FC01448D4423A9F050E02681E3
:100B20003781240F351F37832683828193812817CD
:100B3000390720F08081918197838683CB0166817C
:100B400077810E94091008950F931F93CF93DF932D
:100B5000EC010FB6F8940F928E8D1816BCF48989AB
:100B6000811105C013C08989811104C00FC08E0195
:100B70000F5E1F4FC8010E94660C81110E94F20C8B
:100B80008E8D81508E8F8E8D18166CF38FEF8E8F19
:100B90000F900FBE0FB6F8940F928D8D1816BCF4FF
:100BA0008885811105C013C08885811104C00FC0DC
:100BB0008E01085F1F4FC8010E94660C81110E94C0
:100BC000F20C8D8D81508D8F8D8D18166CF38FEFFB
:100BD0008D8F0F900FBEDF91CF911F910F910895D0
:100BE0009F92AF92BF92CF92DF92EF92FF920F93BC
:100BF0001F93CF93DF9300D000D01F92CDB7DEB705
:100C00008C016B015D834C83A22EB12C99249394AB
:100C10007C0188E0E80EF11C0FB6F8940F92F80101
:100C2000928D838D981718F0F2E0AF1219C04A2DFB
:100C3000B601C8010E942A05F8019189992349F05B
:100C4000C80141960E94660C813031F40E94A503D0
:100C500003C081110E94A5030F900FBE81E050C018
:100C60008C819D81892B21F40F900FBE80E048C0BC
:100C7000B11005C0CE0101960E94AE0CB92C0F90A8
:100C80000FBE0E94DC090FB6F8940F92F801858D13
:100C90008F3F09F4158EF801868D8F3F09F4168E6B
:100CA0000F900FBEBE016C5F7F4FCE0101960E9478
:100CB000B90C81111FC00FB6F8940F92F801928DF4
:100CC0000F900FBE838D98130FC06C817D81C7017B
:100CD0000E943A0CC8010E94A4050E949F0A81113B
:100CE0009BCF0E94A50398CFC8010E94A4050E9433
:100CF0009F0A92CFC8010E94A4050E949F0A80E02B
:100D00000F900F900F900F900F90DF91CF911F9148
:100D10000F91FF90EF90DF90CF90BF90AF909F909A
:100D200008950F931F93CF93DF93FA01DC015A9636
:100D30005C915A975B963C91531710F02230E9F47E
:100D4000422F8F01EC010E942A058E8D8F3F81F486
:100D500089898823A1F0CE0141960E94660C8823E0
:100D600081F00115110579F081E0F80180830CC054
:100D70008E8D8F5F8E8F81E007C080E005C081E09F
:100D800003C081E001C081E0DF91CF911F910F91FD
:100D900008959F92AF92BF92CF92DF92EF92FF920F
:100DA0000F931F93CF93DF9300D000D01F92CDB746
:100DB000DEB78C016B015D834C83922EB12CAA248B
:100DC000A3947C0181E1E80EF11C0FB6F8940F9218
:100DD000F801828D882399F1E680F780B601C80179
:100DE0000E948A0591101AC0F801828D8150828F6D
:100DF00080819181892B29F40E94980DF8019383B9
:100E00008283F80180858823B1F0C80108960E948A
:100E1000660C813081F40E94A5030DC0F801F782B1
:100E2000E6828189882339F0C80141960E94660CC8
:100E300081110E94A5030F900FBE81E05CC08C81E0
:100E40009D81892B21F40F900FBE80E054C0B1101A
:100E500005C0CE0101960E94AE0CBA2C0F900FBEB9
:100E60000E94DC090FB6F8940F92F801858D8F3F30
:100E700009F4158EF801868D8F3F09F4168E0F90B8
:100E80000FBEBE016C5F7F4FCE0101960E94B90C70
:100E900081112BC00FB6F8940F92F801828D0F903C
:100EA0000FBE81111CC080819181892B49F40FB63E
:100EB000F8940F92828193810E94F60C0F900FBEDE
:100EC0006C817D81C7010E943A0CC8010E94A40573
:100ED0000E949F0A811179CF0E94A50376CFC80195
:100EE0000E94A4050E949F0A70CFC8010E94A40519
:100EF0000E949F0A80E00F900F900F900F900F902C
:100F0000DF91CF911F910F91FF90EF90DF90CF90E5
:100F1000BF90AF909F9008950FB6F8940F92FC0188
:100F2000828D0F900FBE0895E0914E07F0914F070C
:100F30008081811107C08FEF9FEF90930301809311
:100F400002010895E0914E07F0914F070580F68168
:100F5000E02D0680F781E02D82819381909303013B
:100F6000809302010895CF93DF93EC01E09186070F
:100F7000F09187079383828380912B0790912C07B0
:100F8000C817D90768F46091860770918707809128
:100F90004C0790914D076E5F7F4F0E94A80217C0CB
:100FA000609186077091870780914E0790914F0757
:100FB0006E5F7F4F0E94A802809102019091030111
:100FC000C817D90720F4D0930301C0930201DF9121
:100FD000CF9108954F925F926F927F928F929F92DE
:100FE000AF92BF92CF92DF92EF92FF920F931F9337
:100FF000CF93DF934C01EB015A012901C114D104B5
:1010000039F4CA010E945D046C01892B09F4E3C024
:1010100088E290E00E945D043C01009779F0FC01B9
:10102000D08EC78AF1E0AF1AB108CA0CDB1C8881E8
:10103000F301818F8881811105C014C0C6010E940F
:10104000F704C9C0D3015A96FE0131969E01285F6C
:101050003F4FEF0181918D938881882319F0E2172A
:10106000F307B9F7F30110A2102F043008F013E0D2
:10107000F301168B11A312A2E3012296CE010E9466
:101080008302C3010C960E948302F301718660867D
:1010900084E090E0811B910995878487738A628A36
:1010A00013A214A215A216A217A2A201B401C6018E
:1010B0000E94FF02F30191838083E114F10419F08F
:1010C000F701718260820FB6F8940F9280912D071C
:1010D0008F5F80932D078091860790918707892BDA
:1010E000D1F5709287076092860780912D07813035
:1010F00009F040C082E697E00E9475028BE697E017
:101100000E94750284E797E00E9475028DE797E0E0
:101110000E94750289E597E00E94750280E597E0DC
:101120000E94750283E497E00E9475028AE397E0CB
:101130000E94750280E397E00E94750289E597E0BE
:1011400090934F0780934E0780E597E090934D076B
:1011500080934C070FC08091290781110BC0E0914B
:101160008607F09187078689081720F07092870715
:1011700060928607809125078F5F80932507F30192
:10118000868990912A07981710F480932A0790E097
:101190009C01220F331F220F331F220F331F820F98
:1011A000931FBE018E59984F0E9487020F900FBE69
:1011B00080912907882359F0E0918607F0918707ED
:1011C0008689801730F40E94A50381E005C081E084
:1011D00003C081E001C08FEFDF91CF911F910F918C
:1011E000FF90EF90DF90CF90BF90AF909F908F9047
:1011F0007F906F905F904F9008950F931F93CF93C0
:10120000DF93009709F443C0209186073091870748
:101210008217930709F43BC00FB6F8940F92FC01B4
:10122000228533852053374081F5FC012489358997
:10123000F7E023343F0749F1232B39F5EC018C010A
:101240000E5F1F4FC8010E94D9028E8990912A0714
:10125000981710F480932A0790E09C01220F331F07
:10126000220F331F220F331F820F931FB8018E5995
:10127000984F0E948702E0918607F09187079E8928
:101280008689981710F00E94A5030F900FBEDF917A
:10129000CF911F910F910895EF92FF921F93CF93DB
:1012A000DF93FC01228533852053374009F049C084
:1012B000FC0124893589F7E023343F0709F443C052
:1012C000232B09F042C0EC018091240781112CC02E
:1012D0008DE291E00E942F0EE0918607F091870742
:1012E00011E09E898689981708F410E07E0142E09B
:1012F000E40EF11CC7010E94D9028E8990912A0741
:10130000981710F480932A0790E09C01220F331F56
:10131000220F331F220F331F820F931FB7018E59E5
:10132000984F0E94870212C082E391E00E942F0E24
:10133000BE01645F7F4F83E497E00E94870210E064
:1013400005C010E003C010E001C010E0812FDF9164
:10135000CF911F91FF90EF900895AF92BF92CF92DF
:10136000DF92EF92FF920F93A12CB12CC12CD12CC4
:101370000F2EFEE2EF2EF7E0FF2EF02D00E020E032
:1013800030E045E550E068E371E081E49BE00E94D5
:10139000EA07813049F4F8948093290710922C07CA
:1013A00010922B070E946B030F91FF90EF90DF903C
:1013B000CF90BF90AF900895809124078F5F809366
:1013C00024070895CF92DF92EF92FF920F931F931D
:1013D000CF93DF938091240781119BC080912B07CD
:1013E00090912C07019690932C0780932B07E09007
:1013F0002B07F0902C07E114F104B9F480914E070B
:1014000090914F0720914C0730914D0730934F0733
:1014100020934E0790934D0780934C0780912607A9
:101420008F5F809326070E9494078091020190911C
:101430000301E816F90610F4D12C53C0D12CCC24AA
:10144000C394E0914E07F0914F078081811107C04E
:101450008FEF9FEF909303018093020142C0E091D0
:101460004E07F0914F070580F681E02DC681D781A8
:101470008A819B81E816F90628F4909303018093F2
:1014800002012FC08E010E5F1F4FC8010E94D902BA
:101490008C899D89892B21F0CE010C960E94D9025E
:1014A0008E8990912A07981710F480932A0790E06C
:1014B0009C01220F331F220F331F220F331F820F75
:1014C000931FB8018E59984F0E948702E0918607BA
:1014D000F09187079E898689981708F4B2CFDC2C93
:1014E000B0CFE0918607F0918707868990E0FC01F4
:1014F000EE0FFF1FEE0FFF1FEE0FFF1F8E0F9F1F40
:10150000FC01EE59F84F8081823048F0DD24D394FD
:1015100006C0809128078F5F80932807D12C809187
:101520002707882311F0DD24D3948D2DDF91CF91EF
:101530001F910F91FF90EF90DF90CF900895DF9271
:10154000EF92FF920F931F93CF93DF930FB6F89410
:101550000F92809124078150809324078091240763
:10156000811162C080912D07811133C060C0D70105
:101570001596ED91FC911697C681D781CE010C96F8
:101580000E94D9028E010E5F1F4FC8010E94D9022E
:101590008E8990912A07981710F480932A0790E07B
:1015A0009C01220F331F220F331F220F331F820F84
:1015B000931FB8018E59984F0E948702E0918607C9
:1015C000F09187079E898689981758F0D09227074F
:1015D00008C00F2EF3E4EF2EF7E0FF2EF02DDD24F0
:1015E000D394F70180818111C2CF8091280788238D
:1015F00099F080912807882379F0C1E00E94E209E0
:101600008111C09327078091280781508093280774
:10161000809128078111F2CF80912707813031F422
:101620000E94A50381E003C080E001C080E00F902C
:101630000FBEDF91CF911F910F91FF90EF90DF9040
:101640000895CF93DF93EC01892BB1F00E94DC0960
:1016500080912B0790912C07C80FD91F8091860786
:101660009091870702960E94D902CE010E94B3078B
:101670000E949F0A811102C00E94A503DF91CF91B1
:1016800008950AE317E00F2EF2E6EF2EF7E0FF2EA3
:10169000F02D29C00E94DC09D801CC910E949F0A3C
:1016A000CC2309F10FB6F8940F92D8011596ED915D
:1016B000FC911697C681D781CE0102960E94D9026D
:1016C00080912D07815080932D078091390781509B
:1016D000809339070F900FBE8F89988D0E94F70471
:1016E000CE010E94F704809139078111D3CFF70111
:1016F00080818230C0F30E94A503F5CF809124073A
:10170000882321F081E0809327070895109227070E
:1017100080912A0790E0FC01EE0FFF1FEE0FFF1FE4
:10172000EE0FFF1F8E0F9F1FFC01EE59F84F8081B7
:10173000811117C080912A07815080932A078091D8
:101740002A0790E0FC01EE0FFF1FEE0FFF1FEE0FC8
:10175000FF1F8E0F9F1FFC01EE59F84F80818823D9
:1017600049F380912A0790E09C01220F331F220F3A
:10177000331F220F331F280F391FD901AE59B84F1D
:101780001196ED91FC9112970280F381E02D129653
:10179000FC93EE9311972B59384FE217F30729F476
:1017A00022813381FD0132832183FC01EE0FFF1F73
:1017B000EE0FFF1FEE0FFF1F8E0F9F1FFC01EE5954
:1017C000F84F0180F281E02D868197819093870701
:1017D0008093860708950F931F93CF93DF93EC01B7
:1017E0000FB6F8940F92892B21F4C0918607D091FF
:1017F00087078E010E5F1F4FC8010E94D9028C8996
:101800009D89892B21F0CE010C960E94D902B80146
:1018100080E397E00E9487020F900FBE80918607B9
:1018200090918707C817D907A9F4809129078823C1
:1018300019F00E94A50319C080912D0790913007DF
:10184000981305C010928707109286070EC00E9459
:101850007E0B0BC080912907882339F00FB6F894CE
:101860000F920E9494070F900FBEDF91CF911F91AE
:101870000F910895CF93DF93EB01609186077091EC
:101880008707645F7F4F0E94A8028091860790912E
:10189000870702960E94D902CF3F8FEFD80759F4ED
:1018A00060918607709187076E5F7F4F80E397E0B6
:1018B0000E94870208C080912B0790912C078C0F03
:1018C0009D1F0E94B307DF91CF9108950F931F933F
:1018D000CF93DF93DC011596ED91FC911697C681AD
:1018E000D7818E01045F1F4FC8010E94D9028091E9
:1018F000240781111CC00A501109C8010E94D90295
:101900008E8990912A07981710F480932A0790E007
:101910009C01220F331F220F331F220F331F820F10
:10192000931FB8018E59984F0E94870205C0B801D5
:1019300083E497E00E948702E0918607F091870791
:101940009E898689891720F481E08093270701C04A
:1019500080E0DF91CF911F910F910895209126078C
:10196000FC01208320912B0730912C0732832183A7
:1019700008950FB6F8940F9240912B0750912C07C1
:10198000DB012D913C912F3FBFEF3B0719F1E09117
:101990002607DC01FC91FE1739F01196ED91FC91C0
:1019A00012974E175F07C0F4DC011196ED91FC9180
:1019B0001297DA01AE1BBF0BA217B30778F4DB0155
:1019C000E41BF50B2E0F3F1F2D933C930E94AE0C92
:1019D00080E005C080E003C081E001C081E00F909D
:1019E0000FBE089581E08093270708950F931F93FA
:1019F000CF93DF93FC01892B09F455C02689A09170
:101A00008607B091870756968C91281708F04BC02F
:101A100084859585992364F0A0918607B091870706
:101A200056963C9184E090E0831B910995878487CA
:101A300030E0C901880F991F880F991F880F991FDF
:101A4000280F391F2E59384F8285938582179307A7
:101A500019F58F01EF012296CE010E94D902E09183
:101A60008607F09187078689F801868B90912A076F
:101A7000981710F480932A0790E09C01220F331FDF
:101A8000220F331F220F331F820F931FBE018E5967
:101A9000984F0E94870207C0A0918607B0918707E0
:101AA00056968C91868BDF91CF911F910F9108955F
:101AB0000F931F93CF93DF93FC01892B79F182A1C0
:101AC000815082A3268991A1291751F181112AC041
:101AD000EF018F010E5F1F4FC8010E94D90289A13B
:101AE0008E8B24E030E0281B31093D872C879091B4
:101AF0002A07981710F480932A0790E09C01220F80
:101B0000331F220F331F220F331F820F931FB80181
:101B10008E59984F0E94870281E005C080E003C083
:101B200080E001C080E0DF91CF911F910F91089577
:101B30008091860790918707892B39F0E09186077D
:101B4000F091870782A18F5F82A380918607909191
:101B500087070895823000F5E82FF0E0EE0FFF1FB1
:101B6000E857F84F71836083882319F0813049F07A
:101B70000895E9E6F0E080818C7F482B4083E89A65
:101B80000895E9E6F0E08081837F440F551F440FFC
:101B9000551F482B4083E99A08951F920F920FB664
:101BA0000F9211242F933F934F935F936F937F93E3
:101BB0008F939F93AF93BF93EF93FF938091880789
:101BC00090918907892B29F0E0918807F091890786
:101BD0000995FF91EF91BF91AF919F918F917F9167
:101BE0006F915F914F913F912F910F900FBE0F908A
:101BF0001F9018951F920F920FB60F9211242F93DA
:101C00003F934F935F936F937F938F939F93AF9384
:101C1000BF93EF93FF9380918A0790918B07892B55
:101C200029F0E0918A07F0918B070995FF91EF91D8
:101C3000BF91AF919F918F917F916F915F914F91E4
:101C40003F912F910F900FBE0F901F901895E0ECD1
:101C5000F0E0908195FFFDCF8093C6000895CF936B
:101C6000DF93EC018881882331F021960E94270EB2
:101C700089918111FBCFDF91CF9108950E94520E7F
:101C80000C943A0F0E94330F58F00E942C0F40F032
:101C900029F45F3F29F00C94230F51110C946E0F1F
:101CA0000C94290F0E944B0F68F39923B1F355232D
:101CB00091F3951B550BBB27AA276217730784075F
:101CC00038F09F5F5F4F220F331F441FAA1FA9F3F5
:101CD00035D00E2E3AF0E0E832D091505040E695E3
:101CE000001CCAF72BD0FE2F29D0660F771F881F44
:101CF000BB1F261737074807AB07B0E809F0BB0B37
:101D0000802DBF01FF2793585F4F3AF09E3F51054A
:101D100078F00C94230F0C946E0F5F3FE4F3983E21
:101D2000D4F3869577956795B795F7959F5FC9F733
:101D3000880F911D9695879597F90895E1E0660FB4
:101D4000771F881FBB1F621773078407BA0720F02D
:101D5000621B730B840BBA0BEE1F88F7E095089596
:101D60000E94B70E6894B1110C946E0F08950E94F2
:101D7000530F88F09F5798F0B92F9927B751B0F0BB
:101D8000E1F0660F771F881F991F1AF0BA95C9F7FF
:101D900014C0B13091F00E946D0FB1E008950C9421
:101DA0006D0F672F782F8827B85F39F0B93FCCF3D4
:101DB000869577956795B395D9F73EF4909580957C
:101DC000709561957F4F8F4F9F4F0895E89409C09C
:101DD00097FB3EF490958095709561957F4F8F4F5E
:101DE0009F4F9923A9F0F92F96E9BB279395F69574
:101DF000879577956795B795F111F8CFFAF4BB0FF2
:101E000011F460FF1BC06F5F7F4F8F4F9F4F16C055
:101E1000882311F096E911C0772321F09EE8872FDF
:101E2000762F05C0662371F096E8862F70E060E09B
:101E30002AF09A95660F771F881FDAF7880F969514
:101E4000879597F9089597F99F6780E870E060E0BB
:101E500008959FEF80EC089500240A941616170643
:101E600018060906089500240A941216130614068B
:101E700005060895092E0394000C11F4882352F0EE
:101E8000BB0F40F4BF2B11F460FF04C06F5F7F4FA6
:101E90008F4F9F4F089557FD9058440F551F59F08D
:101EA0005F3F71F04795880F97FB991F61F09F3F47
:101EB00079F087950895121613061406551FF2CF70
:101EC0004695F1DF08C0161617061806991FF1CFC0
:101ED00086957105610508940895E894BB276627E7
:101EE0007727CB0197F908950E94870F0C943A0F3A
:101EF0000E942C0F38F00E94330F20F0952311F030
:101F00000C94230F0C94290F11240C946E0F0E9433
:101F10004B0F70F3959FC1F3950F50E0551F629FD3
:101F2000F001729FBB27F00DB11D639FAA27F00D32
:101F3000B11DAA1F649F6627B00DA11D661F829F59
:101F40002227B00DA11D621F739FB00DA11D621F3E
:101F5000839FA00D611D221F749F3327A00D611D5B
:101F6000231F849F600D211D822F762F6A2F11243D
:101F70009F5750409AF0F1F088234AF0EE0FFF1F70
:101F8000BB1F661F771F881F91505040A9F79E3FC7
:101F9000510580F00C94230F0C946E0F5F3FE4F317
:101FA000983ED4F3869577956795B795F795E7951D
:101FB0009F5FC1F7FE2B880F911D9695879597F926
:101FC000089597FB072E16F4009407D077FD09D0EB
:101FD0000E94F50F07FC05D03EF4909581959F4F28
:101FE0000895709561957F4F0895AA1BBB1B51E121
:101FF00007C0AA1FBB1FA617B70710F0A61BB70B79
:10200000881F991F5A95A9F780959095BC01CD011D
:102010000895FB01DC0102C001900D924150504037
:08202000D8F70895F894FFCFF2
:10202800DB05FFFF7461736B5F49324300746173B2
:102038006B5F414443007461736B5F756C747261CC
:10204800007461736B5F6F6E5F6F666600747275A4
:0E205800650066616C73650049444C450000EC
:00000001FF
