:100000000C9434000C945C0C0C94890C0C945100EE
:100010000C9451000C9451000C9451000C9451001C
:100020000C9451000C9451000C9451000C94DA0380
:100030000C9451000C9451000C9451000C945100FC
:100040000C9451000C9451000C9451000C945100EC
:100050000C9451000C9451000C9451000C945100DC
:100060000C949B010C94510011241FBECFEFD8E0DB
:10007000DEBFCDBF11E0A0E0B1E0ECEEF9E102C0DF
:1000800005900D92A632B107D9F727E0A6E2B1E0BC
:1000900001C01D92A138B207E1F70E9467010C94DC
:1000A000F40C0C940000ECEBF0E094E0908380936F
:1000B000BA0084EC8083808181608083089595B14B
:1000C0009370282F26952695922B95B92898299AD2
:1000D00095E09A95F1F700002998EFE1F3E0319768
:1000E000F1F700C0000095B19370880F880F892B3D
:1000F00085B9299AF5E0FA95F1F7000029988FE380
:100100009FE10197F1F700C00000089595B1937049
:10011000282F26952695922B95B9289A299A95E00D
:100120009A95F1F700002998EFE1F3E03197F1F7A4
:1001300000C0000095B19370880F880F892B85B996
:10014000299AF5E0FA95F1F7000029988FE39FE1ED
:100150000197F1F700C0000008958FEF84B92FEFE9
:1001600089EF90E0215080409040E1F700C000000E
:1001700082E00E945F0088E20E945F008CE00E94A3
:100180005F0086E00E945F0081E00E945F008FE3D5
:100190009FE10197F1F700C000000895CF93DF932E
:1001A000EC018881882331F021960E948600899194
:1001B0008111FBCFDF91CF91089581E00E945F0014
:1001C0008FE39FE10197F1F700C0000080E80E94F3
:1001D0005F00089587BD089588BD0895589A59987D
:1001E00008955F9A5C9808958AB1836F8AB984B53F
:1001F000806A84BD84B5816084BD85B5826085BD1B
:100200008FEF87BD88BD0E94EE000E94F100089527
:10021000CF93DF931F92CDB7DEB70E94F400809199
:100220007D0790917E070E943D078823A9F020E07A
:1002300040E050E0BE016F5F7F4F80917D0790915D
:100240007E070E947A068981853630F080E00E9420
:10025000EA0080E00E94EC0084E690E00E94220A1E
:10026000DECFCF93DF93CDB7DEB72B970FB6F894E1
:10027000DEBF0FBECDBF0E94AD0080917707909189
:1002800078070E943D078823E9F020E040E050E035
:10029000BE016F5F7F4F80917707909178070E9432
:1002A0007A060E94DD008981882354F44AE0BE0169
:1002B0006E5F7F4F90E00E94BF0C0E94CE0002C094
:1002C0000E94860084E690E00E94220AD6CFA12CEC
:1002D000B12CC12CD12CE12CF12C01E020E030E03C
:1002E00040E051E064E071E081E391E00E949B070F
:1002F00020E030E040E051E06DE071E088E091E026
:100300000E949B0740E061E08AE00E94AD05909367
:1003100078078093770740E061E08AE00E94AD05AE
:1003200090937E0780937D0782E00E9453000E9495
:10033000AE087894FFCF1F920F920FB60F92112440
:100340002F933F934F935F936F937F938F939F93DD
:10035000AF93BF93EF93FF93CF93DF931F92CDB7EC
:10036000DEB78091B900887F803631F4ECEBF0E0A5
:1003700080818068808325C08091B900887F803823
:1003800001F58091BB00898321E040E050E0BE018F
:100390006F5F7F4F80917707909178070E94D90512
:1003A00021E040E050E0BE016F5F7F4F80917D070C
:1003B00090917E070E94D905ECEBF0E08081806887
:1003C00080830F90DF91CF91FF91EF91BF91AF911B
:1003D0009F918F917F916F915F914F913F912F915D
:1003E0000F900FBE0F901F901895FC0103969283FB
:1003F00081832FEF3FEF3483238396838583908718
:10040000878310820895FC01118610860895CF938A
:10041000DF939C01FB01DC011196CD91DC911297D9
:10042000D383C2838C819D81958384838C819D81BC
:10043000DC0113967C936E9312977D836C833187D6
:100440002087F90180818F5F8083DF91CF910895AC
:10045000CF93DF93EB01488159814F3F2FEF520734
:1004600021F4FC01A781B0850DC0DC01139601C009
:10047000DF011296ED91FC91139720813181421793
:100480005307B0F71296ED91FC911397FB83EA8323
:10049000D583C483BD83AC831396DC93CE9312972C
:1004A00099878887FC0120812F5F2083DF91CF917E
:1004B0000895CF93DF93FC01A085B185C281D381DC
:1004C000848195819D838C83C481D5818281938130
:1004D0009B838A8311968D919C911297E817F90757
:1004E00031F48481958112969C938E931197118695
:1004F00010868C9181508C93DF91CF91089531E1DA
:10050000FC013083319722E220833197A3E3A0835B
:10051000319760833197708331971082319760E80B
:10052000608331971082319762E06083319763E096
:100530006083319764E06083319765E06083319731
:1005400066E06083319767E06083319768E060839D
:10055000319769E06083319760E160833197308340
:10056000319732E13083319733E13083319734E191
:100570003083319735E13083319736E130833197DD
:1005800037E13083319738E13083319739E1308377
:10059000319730E23083319731E2308331972083D5
:1005A000319723E2208331974083319750833197ED
:1005B00026E22083319727E22083319728E22083A7
:1005C000319729E22083319720E32083319721E37B
:1005D000208386970895109289008CE78093880085
:1005E0008BE080938100EFE6F0E080818260808381
:1005F000A0916D07B0916E07CD91CDBFDD91DEBFAB
:10060000FF91EF91DF91CF91BF91AF919F918F912A
:100610007F916F915F914F913F912F911F910F911A
:10062000FF90EF90DF90CF90BF90AF909F908F9012
:100630007F906F905F904F903F902F901F900F9002
:100640000FBE0F90089581E008950F920FB6F894B1
:100650000F921F9211242F923F924F925F926F92AE
:100660007F928F929F92AF92BF92CF92DF92EF9242
:10067000FF920F931F932F933F934F935F936F932B
:100680007F938F939F93AF93BF93CF93DF93EF931A
:10069000FF93A0916D07B0916E070DB60D920EB647
:1006A0000D920E947F0AA0916D07B0916E07CD91C7
:1006B000CDBFDD91DEBFFF91EF91DF91CF91BF9173
:1006C000AF919F918F917F916F915F914F913F91EA
:1006D0002F911F910F91FF90EF90DF90CF90BF90DF
:1006E000AF909F908F907F906F905F904F903F90D2
:1006F0002F901F900F900FBE0F9008950F920FB67E
:10070000F8940F921F9211242F923F924F925F9272
:100710006F927F928F929F92AF92BF92CF92DF9211
:10072000EF92FF920F931F932F933F934F935F93FB
:100730006F937F938F939F93AF93BF93CF93DF93E9
:10074000EF93FF93A0916D07B0916E070DB60D92D8
:100750000EB60D920E94E30881110E947F0AA091BB
:100760006D07B0916E07CD91CDBFDD91DEBFFF91DA
:10077000EF91DF91CF91BF91AF919F918F917F9139
:100780006F915F914F913F912F911F910F91FF902A
:10079000EF90DF90CF90BF90AF909F908F907F9021
:1007A0006F905F904F903F902F901F900F900FBED3
:1007B0000F9008950E947E0318950F931F93CF9377
:1007C000DF93EC010E94DD088091260181111DC09C
:1007D000EBE2F1E080E391E0918380831382128267
:1007E000E7E2F1E08BED95E0938382831182108242
:1007F000AFE2B1E014969C938E9313971296FC93FC
:10080000EE93119781E080932601209709F45FC051
:100810009E012C5F3F4F2396CA3DD54008F05AC039
:10082000E0912B01F0912C01ABE2B1E002C0DF01BD
:10083000FC01828193818217930720F4808191814A
:100840000097A9F7C1E0E732FC0709F446C0CD9153
:10085000DC9111978E010C5F1F4F808191818D93E8
:100860009C9382819381821B930B8930910510F1B7
:10087000BF01620F731FDB0113969C938E93129737
:100880003383228312964D915C9113978BE291E012
:1008900001C0CD01EC01A881B98112962D913C9146
:1008A000139724173507A8F3EB01B983A883DC015C
:1008B0006D937C938091000190910101228133819D
:1008C000821B930B909301018093000108C000E00C
:1008D00010E005C000E010E002C000E010E00E945F
:1008E000A009C801DF91CF911F910F9108950F9337
:1008F0001F93CF93DF93009741F1EC018C010450DB
:1009000011090E94DD08F80142815381ABE2B1E098
:1009100001C0DF01ED91FC911197228133812417F1
:100920003507B8F32497F983E8830D931C9320913E
:100930000001309101018A819B81820F931F909366
:100940000101809300010E94A009DF91CF911F91C6
:100950000F9108951F93CF93DF93EC01142F4C8DCB
:1009600041110CC088819981892B09F045C08A8189
:100970009B810E940A0C1B821A8245C0111117C06C
:1009800050E08C819D810E94B60C2C8D8C819D81C4
:10099000820F911D9D838C832A813B81821793074F
:1009A00068F1888199819D838C8380E02CC050E020
:1009B0008E819F810E94B60C8C8D90E091958195DF
:1009C00091092E813F81280F391F3F832E83488153
:1009D00059812417350730F42A813B81820F931FF8
:1009E0009F838E83123061F48A8D882359F08A8D1B
:1009F00081508A8F80E007C080E005C080E003C09E
:100A000080E001C080E09A8D9F5F9A8FDF91CF9147
:100A10001F910895FC01448D4423A9F050E02681E4
:100A20003781240F351F37832683828193812817CE
:100A3000390720F08081918197838683CB0166817D
:100A400077810E94B60C08950F931F93CF93DF9385
:100A5000EC010FB6F8940F928E8D1816BCF48989AC
:100A6000811105C013C08989811104C00FC08E0196
:100A70000F5E1F4FC8010E94180B81110E94A40B2A
:100A80008E8D81508E8F8E8D18166CF38FEF8E8F1A
:100A90000F900FBE0FB6F8940F928D8D1816BCF400
:100AA0008885811105C013C08885811104C00FC0DD
:100AB0008E01085F1F4FC8010E94180B81110E9410
:100AC000A40B8D8D81508D8F8D8D18166CF38FEF4B
:100AD0008D8F0F900FBEDF91CF911F910F910895D1
:100AE000CF93DF93EC010FB6F8940F9248815981B0
:100AF0002C8D30E07B8D729FC001739F900D11246F
:100B0000FA01E80FF91FFB83EA831A8E5D834C8399
:100B1000821B930B840F951F9F838E838FEF8D8F86
:100B20008E8F61110CC08885882389F0CE010896CC
:100B30000E94180B813059F40E94250308C0CE0191
:100B400008960E94F501CE0141960E94F5010F9092
:100B50000FBE81E0DF91CF9108950F931F93CF9344
:100B6000DF93082F162F6623B9F0869FC00111244A
:100B700080960E94DD03EC01009721F414C0D98314
:100B8000C88303C04F96998388830B8F1C8F61E0C5
:100B9000CE010E94700507C08FE190E00E94DD0346
:100BA000EC01892B61F7CE01DF91CF911F910F915D
:100BB00008959F92AF92BF92CF92DF92EF92FF92F1
:100BC0000F931F93CF93DF9300D000D01F92CDB728
:100BD000DEB78C016B015D834C83A22EB12C99246E
:100BE00093947C0188E0E80EF11C0FB6F8940F9204
:100BF000F801928D838D981718F0F2E0AF1219C0AA
:100C00004A2DB601C8010E94AA04F80191899923CE
:100C100049F0C80141960E94180B813031F40E94BE
:100C2000250303C081110E9425030F900FBE81E0B0
:100C300050C08C819D81892B21F40F900FBE80E0E4
:100C400048C0B11005C0CE0101960E94600BB92CBE
:100C50000F900FBE0E94DD080FB6F8940F92F801B6
:100C6000858D8F3F09F4158EF801868D8F3F09F42D
:100C7000168E0F900FBEBE016C5F7F4FCE010196A6
:100C80000E946B0B81111FC00FB6F8940F92F801F0
:100C9000928D0F900FBE838D98130FC06C817D8154
:100CA000C7010E94EC0AC8010E9424050E94A00905
:100CB00081119BCF0E94250398CFC8010E94240573
:100CC0000E94A00992CFC8010E9424050E94A00999
:100CD00080E00F900F900F900F900F90DF91CF91C9
:100CE0001F910F91FF90EF90DF90CF90BF90AF904A
:100CF0009F9008959F92AF92BF92CF92DF92EF9212
:100D0000FF920F931F93CF93DF9300D000D01F92D9
:100D1000CDB7DEB78C016B015D834C83922EB12C75
:100D2000AA24A3947C0181E1E80EF11C0FB6F8948B
:100D30000F92F801828D882399F1E680F780B60141
:100D4000C8010E940A0591101AC0F801828D8150D5
:100D5000828F80819181892B29F40E944A0CF801AD
:100D600093838283F80180858823B1F0C8010896B7
:100D70000E94180B813081F40E9425030DC0F801F8
:100D8000F782E6828189882339F0C80141960E9462
:100D9000180B81110E9425030F900FBE81E05CC0EB
:100DA0008C819D81892B21F40F900FBE80E054C06F
:100DB000B11005C0CE0101960E94600BBA2C0F90B5
:100DC0000FBE0E94DD080FB6F8940F92F801858DD2
:100DD0008F3F09F4158EF801868D8F3F09F4168E2A
:100DE0000F900FBEBE016C5F7F4FCE0101960E9437
:100DF0006B0B81112BC00FB6F8940F92F801828D06
:100E00000F900FBE81111CC080819181892B49F404
:100E10000FB6F8940F92828193810E94A80B0F90D5
:100E20000FBE6C817D81C7010E94EC0AC8010E943F
:100E300024050E94A009811179CF0E94250376CF55
:100E4000C8010E9424050E94A00970CFC8010E9419
:100E500024050E94A00980E00F900F900F900F9042
:100E60000F90DF91CF911F910F91FF90EF90DF9046
:100E7000CF90BF90AF909F9008950FB6F8940F92C7
:100E8000FC01828D0F900FBE0895E0913507F0911F
:100E900036078081811107C08FEF9FEF9093030188
:100EA000809302010895E0913507F091360705809F
:100EB000F681E02D0680F781E02D82819381909369
:100EC0000301809302010895CF93DF93EC01E09139
:100ED0006D07F0916E079383828380911207909142
:100EE0001307C817D90768F460916D0770916E07F2
:100EF00080913307909134076E5F7F4F0E942802E4
:100F000017C060916D0770916E07809135079091C1
:100F100036076E5F7F4F0E942802809102019091F8
:100F20000301C817D90720F4D0930301C09302012D
:100F3000DF91CF9108954F925F926F927F928F923F
:100F40009F92AF92BF92CF92DF92EF92FF920F9358
:100F50001F93CF93DF934C01EB015A012901C11478
:100F6000D10439F4CA010E94DD036C01892B09F414
:100F7000E3C088E290E00E94DD033C01009779F035
:100F8000FC01D08EC78AF1E0AF1AB108CA0CDB1C95
:100F90008881F301818F8881811105C014C0C60149
:100FA0000E947704C9C0D3015A96FE0131969E0172
:100FB000285F3F4FEF0181918D938881882319F03D
:100FC000E217F307B9F7F30110A2102F043008F06D
:100FD00013E0F301168B11A312A2E3012296CE01B6
:100FE0000E940302C3010C960E940302F301718662
:100FF000608684E090E0811B910995878487738ADD
:10100000628A13A214A215A216A217A2A201B40109
:10101000C6010E947F02F30191838083E114F104F1
:1010200019F0F701718260820FB6F8940F928091E7
:1010300014078F5F8093140780916D0790916E075E
:10104000892BD1F570926E0760926D07809114071D
:10105000813009F040C089E497E00E94F50182E503
:1010600097E00E94F5018BE597E00E94F50184E688
:1010700097E00E94F50180E497E00E94F50187E384
:1010800097E00E94F5018AE297E00E94F50181E273
:1010900097E00E94F50187E197E00E94F50180E466
:1010A00097E0909336078093350787E397E0909316
:1010B0003407809333070FC08091100781110BC054
:1010C000E0916D07F0916E078689081720F0709205
:1010D0006E0760926D0780910C078F5F80930C07FD
:1010E000F301868990911107981710F480931107E6
:1010F00090E09C01220F331F220F331F220F331F5A
:10110000820F931FBE01875B984F0E9407020F90CA
:101110000FBE80911007882359F0E0916D07F09180
:101120006E078689801730F40E94250381E005C090
:1011300081E003C081E001C08FEFDF91CF911F916B
:101140000F91FF90EF90DF90CF90BF90AF909F9066
:101150008F907F906F905F904F900895AF92BF9265
:10116000CF92DF92EF92FF920F93A12CB12CC12C62
:10117000D12C0F2EF5E1EF2EF7E0FF2EF02D00E041
:1011800020E030E045E550E061E271E082E49AE081
:101190000E949B07813049F4F894809310071092C5
:1011A0001307109212070E94EB020F91FF90EF902D
:1011B000DF90CF90BF90AF90089580910B078F5F25
:1011C00080930B070895CF92DF92EF92FF920F93D7
:1011D0001F93CF93DF9380910B0781119BC0809168
:1011E00012079091130701969093130780931207AB
:1011F000E0901207F0901307E114F104B9F4809124
:10120000350790913607209133073091340730939A
:1012100036072093350790933407809333078091E6
:101220000D078F5F80930D070E9445078091020193
:1012300090910301E816F90610F4D12C53C0D12C7B
:10124000CC24C394E0913507F09136078081811159
:1012500007C08FEF9FEF909303018093020142C07C
:10126000E0913507F09136070580F681E02DC681C3
:10127000D7818A819B81E816F90628F490930301AF
:10128000809302012FC08E010E5F1F4FC8010E9484
:1012900059028C899D89892B21F0CE010C960E94E0
:1012A00059028E8990911107981710F480931107B5
:1012B00090E09C01220F331F220F331F220F331F98
:1012C000820F931FB801875B984F0E940702E0913D
:1012D0006D07F0916E079E898689981708F4B2CF42
:1012E000DC2CB0CFE0916D07F0916E07868990E01D
:1012F000FC01EE0FFF1FEE0FFF1FEE0FFF1F8E0F03
:101300009F1FFC01E75BF84F8081823048F0DD24AD
:10131000D39406C080910F078F5F80930F07D12C65
:1013200080910E07882311F0DD24D3948D2DDF9159
:10133000CF911F910F91FF90EF90DF90CF90089584
:10134000DF92EF92FF920F931F93CF93DF930FB62D
:10135000F8940F9280910B07815080930B07809136
:101360000B07811162C080911407811133C060C0E6
:10137000D7011596ED91FC911697C681D781CE01C4
:101380000C960E9459028E010E5F1F4FC8010E94E9
:1013900059028E8990911107981710F480931107C4
:1013A00090E09C01220F331F220F331F220F331FA7
:1013B000820F931FB801875B984F0E940702E0914C
:1013C0006D07F0916E079E898689981758F0D09224
:1013D0000E0708C00F2EFAE2EF2EF7E0FF2EF02DD9
:1013E000DD24D394F70180818111C2CF80910F0752
:1013F000882399F080910F07882379F0C1E00E943B
:10140000E3088111C0930E0780910F0781508093EC
:101410000F0780910F078111F2CF80910E07813065
:1014200031F40E94250381E003C080E001C080E028
:101430000F900FBEDF91CF911F910F91FF90EF9012
:10144000DF900895CF93DF93EC01892BB1F00E94D8
:10145000DD088091120790911307C80FD91F809162
:101460006D0790916E0702960E945902CE010E946C
:1014700064070E94A009811102C00E942503DF9128
:10148000CF91089501E217E00F2EF9E4EF2EF7E077
:10149000FF2EF02D29C00E94DD08D801CC910E94BA
:1014A000A009CC2309F10FB6F8940F92D801159634
:1014B000ED91FC911697C681D781CE0102960E94CC
:1014C000590280911407815080931407809120075E
:1014D0008150809320070F900FBE8F89988D0E94B6
:1014E0007704CE010E947704809120078111D3CF29
:1014F000F70180818230C0F30E942503F5CF8091EF
:101500000B07882321F081E080930E070895109245
:101510000E078091110790E0FC01EE0FFF1FEE0F08
:10152000FF1FEE0FFF1F8E0F9F1FFC01E75BF84FA1
:101530008081811117C0809111078150809311071C
:101540008091110790E0FC01EE0FFF1FEE0FFF1FCF
:10155000EE0FFF1F8E0F9F1FFC01E75BF84F80818E
:10156000882349F38091110790E09C01220F331FDB
:10157000220F331F220F331F280F391FD901A75BFA
:10158000B84F1196ED91FC9112970280F381E02DF6
:101590001296FC93EE931197245B384FE217F307F2
:1015A00029F422813381FD0132832183FC01EE0F76
:1015B000FF1FEE0FFF1FEE0FFF1F8E0F9F1FFC017F
:1015C000E75BF84F0180F281E02D8681978190934F
:1015D0006E0780936D070895CF93DF93EB016091C1
:1015E0006D0770916E07645F7F4F0E9428028091A3
:1015F0006D0790916E0702960E945902CF3F8FEFC0
:10160000D80759F460916D0770916E076E5F7F4F38
:1016100087E197E00E94070208C08091120790912D
:1016200013078C0F9D1F0E946407DF91CF910895CF
:101630000F931F93CF93DF93DC011596ED91FC91EF
:101640001697C681D7818E01045F1F4FC8010E9483
:10165000590280910B0781111CC00A501109C80161
:101660000E9459028E8990911107981710F4809367
:10167000110790E09C01220F331F220F331F220F0E
:10168000331F820F931FB801875B984F0E94070298
:1016900005C0B8018AE297E00E940702E0916D0759
:1016A000F0916E079E898689891720F481E08093E6
:1016B0000E0701C080E0DF91CF911F910F91089537
:1016C00020910D07FC012083209112073091130710
:1016D0003283218308950FB6F8940F924091120738
:1016E00050911307DB012D913C912F3FBFEF3B073A
:1016F00019F1E0910D07DC01FC91FE1739F011960C
:10170000ED91FC9112974E175F07C0F4DC01119622
:10171000ED91FC911297DA01AE1BBF0BA217B30734
:1017200078F4DB01E41BF50B2E0F3F1F2D933C9348
:101730000E94600B80E005C080E003C081E001C032
:1017400081E00F900FBE089581E080930E07089509
:101750000F931F93CF93DF93FC01892B09F455C09E
:101760002689A0916D07B0916E0756968C91281727
:1017700008F04BC084859585992364F0A0916D078E
:10178000B0916E0756963C9184E090E0831B9109DE
:101790009587848730E0C901880F991F880F991FAA
:1017A000880F991F280F391F275B384F8285938533
:1017B0008217930719F58F01EF012296CE010E943F
:1017C0005902E0916D07F0916E078689F801868BCA
:1017D00090911107981710F48093110790E09C01E5
:1017E000220F331F220F331F220F331F820F931F2D
:1017F000BE01875B984F0E94070207C0A0916D074A
:10180000B0916E0756968C91868BDF91CF911F9188
:101810000F9108950F931F93CF93DF93FC01892BB2
:1018200079F182A1815082A3268991A1291751F1D2
:1018300081112AC0EF018F010E5F1F4FC8010E9466
:10184000590289A18E8B24E030E0281B31093D87A5
:101850002C8790911107981710F48093110790E04E
:101860009C01220F331F220F331F220F331F820FC1
:10187000931FB801875B984F0E94070281E005C063
:1018800080E003C080E001C080E0DF91CF911F9134
:101890000F91089580916D0790916E07892B39F013
:1018A000E0916D07F0916E0782A18F5F82A3809116
:1018B0006D0790916E0708951F920F920FB60F92C9
:1018C00011242F933F934F935F936F937F938F9345
:1018D0009F93AF93BF93EF93FF9380916F07909186
:1018E0007007892B29F0E0916F07F0917007099537
:1018F000FF91EF91BF91AF919F918F917F916F91E8
:101900005F914F913F912F910F900FBE0F901F90BD
:1019100018951F920F920FB60F9211242F933F9399
:101920004F935F936F937F938F939F93AF93BF93E7
:10193000EF93FF938091710790917207892B29F0A3
:10194000E0917107F09172070995FF91EF91BF91B6
:10195000AF919F918F917F916F915F914F913F9147
:101960002F910F900FBE0F901F901895FB01DC0177
:1019700002C001900D9241505040D8F70895BB2706
:101980004A3031F4992322F4BDE2909581959F4F1E
:101990000C94CB0CBB27FB015527AA27880F991F56
:1019A000AA1FA41710F0A41B83955051B9F7A05D8E
:1019B000AA3308F0A95DA193009779F7B111B1930B
:1019C0001192CB010C94E40CDC01FC01672F7191A6
:1019D0007723E1F7329704C07C916D937083629115
:0C19E000AE17BF07C8F30895F894FFCFBE
:1019EC00DB05FFFF7461736B5F4C434400746173E0
:1019FC006B5F50574D00747275650066616C736552
:061A0C000049444C4500B6
:00000001FF
