S0120000536C617665206E6F64652E7372656351
S11300000C9434000C94810C0C94AE0C0C945100A0
S11300100C9451000C9451000C9451000C94510018
S11300200C9451000C9451000C9451000C94FF0357
S11300300C9451000C9451000C9451000C945100F8
S11300400C9451000C9451000C9451000C945100E8
S11300500C9451000C9451000C9451000C945100D8
S11300600C94BD010C94510011241FBECFEFD8E0B5
S1130070DEBFCDBF11E0A0E0B1E0ECE4FAE102C0E4
S113008005900D92AC33B107D9F727E0ACE3B1E0AA
S113009001C01D92AD38B207E1F70E9489010C94AA
S11300A0240D0C940000ECEBF0E094E0908380933A
S11300B0BA0084EC8083808181608083089595B147
S11300C09370282F26952695922B95B92898299ACE
S11300D095E09A95F1F700002998EFE1F3E0319764
S11300E0F1F700C0000095B19370880F880F892B39
S11300F085B9299AF5E0FA95F1F7000029988FE37C
S11301009FE10197F1F700C00000089595B1937045
S1130110282F26952695922B95B9289A299A95E009
S11301209A95F1F700002998EFE1F3E03197F1F7A0
S113013000C0000095B19370880F880F892B85B992
S1130140299AF5E0FA95F1F7000029988FE39FE1E9
S11301500197F1F700C0000008958FEF84B92FEFE5
S113016089EF90E0215080409040E1F700C000000A
S113017082E00E945F0088E20E945F008CE00E949F
S11301805F0086E00E945F0081E00E945F008FE3D1
S11301909FE10197F1F700C000000895CF93DF932A
S11301A0EC018881882331F021960E948600899190
S11301B08111FBCFDF91CF91089581E00E945F0010
S11301C08FE39FE10197F1F700C0000080E80E94EF
S11301D05F00089587BD089588BD0895589A599879
S11301E008955F9A5C9808958AB1836F8AB984B53B
S11301F0806A84BD84B5816084BD85B5826085BD17
S11302008FEF87BD88BD0E94EE000E94F100089523
S1130210CF93DF931F92CDB7DEB70E94F4001FEF98
S113022001E080918B0790918C070E9462078823DC
S113023011F120E040E050E0BE016F5F7F4F8091FC
S11302408B0790918C070E949F061983809100016F
S1130250882349F01092000180E00E94EA0080E0C7
S11302600E94EC0008C000930001812F0E94EA0064
S1130270812F0E94EC0084E690E00E94470AD1CFCF
S1130280CF93DF93CDB7DEB72B970FB6F894DEBFCD
S11302900FBECDBF0E94AD000E94DD008091890792
S11302A090918A070E946207882331F120E040E0A0
S11302B050E0BE016F5F7F4F8091890790918A075C
S11302C00E949F0610920001898188232CF485E006
S11302D091E00E94CE0004C08CE091E00E94CE0028
S11302E089814AE050E0BE016E5F7F4F90E00E943A
S11302F0E40C0E94CE0008C080910001882321F004
S113030081E191E00E94CE0084E690E00E94470AD9
S1130310C3CFA12CB12CC12CD12CE12CF12C01E0A8
S113032020E030E040E051E06AE171E080E491E0F7
S11303300E94C00720E030E040E051E063E271E059
S113034088E091E00E94C00740E061E08AE00E94FA
S1130350D20590938A078093890740E061E08AE0A0
S11303600E94D20590938C0780938B0782E00E94B1
S113037053000E94D3087894FFCF1F920F920FB6B8
S11303800F9211242F933F934F935F936F937F9317
S11303908F939F93AF93BF93EF93FF93CF93DF9389
S11303A01F92CDB7DEB78091B900887F803631F4D3
S11303B0ECEBF0E080818068808328C08091B900F4
S11303C0887F803819F58091BB00898321E040E063
S11303D050E0BE016F5F7F4F8091890790918A073B
S11303E00E94FE058981807C61F421E040E050E0B8
S11303F0BE016F5F7F4F80918B0790918C070E94A5
S1130400FE05ECEBF0E08081806880830F90DF9143
S1130410CF91FF91EF91BF91AF919F918F917F9178
S11304206F915F914F913F912F910F900FBE0F905D
S11304301F901895FC010396928381832FEF3FEF61
S113044034832383968385839087878310820895DA
S1130450FC01118610860895CF93DF939C01FB0164
S1130460DC011196CD91DC911297D383C2838C81E8
S11304709D81958384838C819D81DC0113967C937B
S11304806E9312977D836C8331872087F901808175
S11304908F5F8083DF91CF910895CF93DF93EB013A
S11304A0488159814F3F2FEF520721F4FC01A78166
S11304B0B0850DC0DC01139601C0DF011296ED91E9
S11304C0FC9113972081318142175307B0F712969C
S11304D0ED91FC911397FB83EA83D583C483BD8399
S11304E0AC831396DC93CE93129799878887FC018B
S11304F020812F5F2083DF91CF910895CF93DF93E5
S1130500FC01A085B185C281D381848195819D83BD
S11305108C83C481D581828193819B838A83119644
S11305208D919C911297E817F90731F48481958194
S113053012969C938E931197118610868C918150FC
S11305408C93DF91CF91089531E1FC013083319791
S113055022E220833197A3E3A0833197608331970C
S1130560708331971082319760E8608331971082ED
S1130570319762E06083319763E06083319764E090
S11305806083319765E06083319766E060833197DB
S113059067E06083319768E06083319769E0608346
S11305A0319760E1608331973083319732E1308352
S11305B0319733E13083319734E13083319735E13A
S11305C03083319736E13083319737E13083319787
S11305D038E13083319739E13083319730E2308329
S11305E0319731E2308331972083319723E220839E
S11305F03197408331975083319726E22083319796
S113060027E22083319728E22083319729E220834F
S1130610319720E32083319721E32083869708953F
S1130620109289008CE7809388008BE0809381008E
S1130630EFE6F0E0808182608083A0918307B0912F
S11306408407CD91CDBFDD91DEBFFF91EF91DF91A6
S1130650CF91BF91AF919F918F917F916F915F9156
S11306604F913F912F911F910F91FF90EF90DF9049
S1130670CF90BF90AF909F908F907F906F905F903E
S11306804F903F902F901F900F900FBE0F900895A2
S113069081E008950F920FB6F8940F921F921124DF
S11306A02F923F924F925F926F927F928F929F927E
S11306B0AF92BF92CF92DF92EF92FF920F931F936C
S11306C02F933F934F935F936F937F938F939F9356
S11306D0AF93BF93CF93DF93EF93FF93A0918307DF
S11306E0B09184070DB60D920EB60D920E94A40A25
S11306F0A0918307B0918407CD91CDBFDD91DEBF7A
S1130700FF91EF91DF91CF91BF91AF919F918F9125
S11307107F916F915F914F913F912F911F910F9115
S1130720FF90EF90DF90CF90BF90AF909F908F900D
S11307307F906F905F904F903F902F901F900F90FD
S11307400FBE0F9008950F920FB6F8940F921F9258
S113075011242F923F924F925F926F927F928F92C9
S11307609F92AF92BF92CF92DF92EF92FF920F933C
S11307701F932F933F934F935F936F937F938F9325
S11307809F93AF93BF93CF93DF93EF93FF93A09186
S11307908307B09184070DB60D920EB60D920E9498
S11307A0080981110E94A40AA0918307B0918407CB
S11307B0CD91CDBFDD91DEBFFF91EF91DF91CF9160
S11307C0BF91AF919F918F917F916F915F914F9165
S11307D03F912F911F910F91FF90EF90DF90CF9059
S11307E0BF90AF909F908F907F906F905F904F904D
S11307F03F902F901F900F900FBE0F9008950E946E
S1130800A30318950F931F93CF93DF93EC010E94DA
S1130810020980913C0181111DC0E1E4F1E086E40C
S113082091E09183808313821282EDE3F1E08BEDFA
S113083095E09383828311821082A5E4B1E014963B
S11308409C938E9313971296FC93EE93119781E0E9
S113085080933C01209709F45FC09E012C5F3F4FB9
S11308602396CA3DD54008F05AC0E0914101F09169
S11308704201A1E4B1E002C0DF01FC018281938165
S11308808217930720F4808191810097A9F7C1E032
S1130890ED33FC0709F446C0CD91DC9111978E012C
S11308A00C5F1F4F808191818D939C9382819381F2
S11308B0821B930B8930910510F1BF01620F731FE6
S11308C0DB0113969C938E931297338322831296A3
S11308D04D915C91139781E491E001C0CD01EC014D
S11308E0A881B98112962D913C911397241735074D
S11308F0A8F3EB01B983A883DC016D937C93809109
S113090001019091020122813381821B930B909308
S113091002018093010108C000E010E005C000E07E
S113092010E002C000E010E00E94C509C801DF9198
S1130930CF911F910F9108950F931F93CF93DF933E
S1130940009741F1EC018C01045011090E94020945
S1130950F80142815381A1E4B1E001C0DF01ED91CE
S1130960FC9111972281338124173507B8F324971A
S1130970F983E8830D931C932091010130910201C6
S11309808A819B81820F931F9093020180930101BE
S11309900E94C509DF91CF911F910F9108951F9374
S11309A0CF93DF93EC01142F4C8D41110CC088813F
S11309B09981892B09F045C08A819B810E942F0C63
S11309C01B821A8245C0111117C050E08C819D8191
S11309D00E94DB0C2C8D8C819D81820F911D9D8347
S11309E08C832A813B818217930768F188819981DE
S11309F09D838C8380E02CC050E08E819F810E9477
S1130A00DB0C8C8D90E09195819591092E813F812D
S1130A10280F391F3F832E834881598124173507B6
S1130A2030F42A813B81820F931F9F838E8312307F
S1130A3061F48A8D882359F08A8D81508A8F80E0F1
S1130A4007C080E005C080E003C080E001C080E012
S1130A509A8D9F5F9A8FDF91CF911F910895FC012A
S1130A60448D4423A9F050E026813781240F351F9B
S1130A7037832683828193812817390720F0808168
S1130A80918197838683CB01668177810E94DB0CF9
S1130A9008950F931F93CF93DF93EC010FB6F8944F
S1130AA00F928E8D1816BCF48989811105C013C06C
S1130AB08989811104C00FC08E010F5E1F4FC801C8
S1130AC00E943D0B81110E94C90B8E8D81508E8F27
S1130AD08E8D18166CF38FEF8E8F0F900FBE0FB69E
S1130AE0F8940F928D8D1816BCF48885811105C079
S1130AF013C08885811104C00FC08E01085F1F4F89
S1130B00C8010E943D0B81110E94C90B8D8D81503B
S1130B108D8F8D8D18166CF38FEF8D8F0F900FBE08
S1130B20DF91CF911F910F910895CF93DF93EC0143
S1130B300FB6F8940F92488159812C8D30E07B8D4B
S1130B40729FC001739F900D1124FA01E80FF91FE1
S1130B50FB83EA831A8E5D834C83821B930B840F81
S1130B60951F9F838E838FEF8D8F8E8F61110CC0A5
S1130B708885882389F0CE0108960E943D0B813038
S1130B8059F40E944A0308C0CE0108960E941A0232
S1130B90CE0141960E941A020F900FBE81E0DF91B0
S1130BA0CF9108950F931F93CF93DF93082F162FA0
S1130BB06623B9F0869FC001112480960E94020426
S1130BC0EC01009721F414C0D983C88303C04F9665
S1130BD0998388830B8F1C8F61E0CE010E94950559
S1130BE007C08FE190E00E940204EC01892B61F7B9
S1130BF0CE01DF91CF911F910F9108959F92AF92F3
S1130C00BF92CF92DF92EF92FF920F931F93CF93F5
S1130C10DF9300D000D01F92CDB7DEB78C016B01FB
S1130C205D834C83A22EB12C992493947C0188E09B
S1130C30E80EF11C0FB6F8940F92F801928D838D93
S1130C40981718F0F2E0AF1219C04A2DB601C80186
S1130C500E94CF04F8019189992349F0C801419673
S1130C600E943D0B813031F40E944A0303C081117C
S1130C700E944A030F900FBE81E050C08C819D8179
S1130C80892B21F40F900FBE80E048C0B11005C03D
S1130C90CE0101960E94850BB92C0F900FBE0E94C5
S1130CA002090FB6F8940F92F801858D8F3F09F46D
S1130CB0158EF801868D8F3F09F4168E0F900FBEA6
S1130CC0BE016C5F7F4FCE0101960E94900B811193
S1130CD01FC00FB6F8940F92F801928D0F900FBEBB
S1130CE0838D98130FC06C817D81C7010E94110B05
S1130CF0C8010E9449050E94C50981119BCF0E9429
S1130D004A0398CFC8010E9449050E94C50992CFA1
S1130D10C8010E9449050E94C50980E00F900F9008
S1130D200F900F900F90DF91CF911F910F91FF9033
S1130D30EF90DF90CF90BF90AF909F9008959F92D7
S1130D40AF92BF92CF92DF92EF92FF920F931F93D5
S1130D50CF93DF9300D000D01F92CDB7DEB78C01C4
S1130D606B015D834C83922EB12CAA24A3947C0145
S1130D7081E1E80EF11C0FB6F8940F92F801828D10
S1130D80882399F1E680F780B601C8010E942F05F7
S1130D9091101AC0F801828D8150828F80819181D7
S1130DA0892B29F40E946F0CF80193838283F80144
S1130DB080858823B1F0C80108960E943D0B8130DC
S1130DC081F40E944A030DC0F801F782E68281890A
S1130DD0882339F0C80141960E943D0B81110E947D
S1130DE04A030F900FBE81E05CC08C819D81892BEA
S1130DF021F40F900FBE80E054C0B11005C0CE01A5
S1130E0001960E94850BBA2C0F900FBE0E94020916
S1130E100FB6F8940F92F801858D8F3F09F4158E63
S1130E20F801868D8F3F09F4168E0F900FBEBE0118
S1130E306C5F7F4FCE0101960E94900B81112BC0F5
S1130E400FB6F8940F92F801828D0F900FBE8111A6
S1130E501CC080819181892B49F40FB6F8940F92BC
S1130E60828193810E94CD0B0F900FBE6C817D8196
S1130E70C7010E94110BC8010E9449050E94C509BF
S1130E80811179CF0E944A0376CFC8010E94490597
S1130E900E94C50970CFC8010E9449050E94C50976
S1130EA080E00F900F900F900F900F90DF91CF91F3
S1130EB01F910F91FF90EF90DF90CF90BF90AF9074
S1130EC09F9008950FB6F8940F92FC01828D0F90B5
S1130ED00FBE0895E0914B07F0914C07808181117A
S1130EE007C08FEF9FEF909304018093030108954F
S1130EF0E0914B07F0914C070580F681E02D0680C8
S1130F00F781E02D82819381909304018093030102
S1130F100895CF93DF93EC01E0918307F091840768
S1130F20938382838091280790912907C817D90752
S1130F3068F46091830770918407809149079091C8
S1130F404A076E5F7F4F0E944D0217C0609183076E
S1130F507091840780914B0790914C076E5F7F4F8F
S1130F600E944D028091030190910401C817D90792
S1130F7020F4D0930401C0930301DF91CF9108952D
S1130F804F925F926F927F928F929F92AF92BF9295
S1130F90CF92DF92EF92FF920F931F93CF93DF9341
S1130FA04C01EB015A012901C114D10439F4CA01DD
S1130FB00E9402046C01892B09F4E3C088E290E0EA
S1130FC00E9402043C01009779F0FC01D08EC78A8C
S1130FD0F1E0AF1AB108CA0CDB1C8881F301818FE0
S1130FE08881811105C014C0C6010E949C04C9C037
S1130FF0D3015A96FE0131969E01285F3F4FEF01BF
S113100081918D938881882319F0E217F307B9F74A
S1131010F30110A2102F043008F013E0F301168B33
S113102011A312A2E3012296CE010E942802C30159
S11310300C960E942802F3017186608684E090E099
S1131040811B910995878487738A628A13A214A2EB
S113105015A216A217A2A201B401C6010E94A402FD
S1131060F30191838083E114F10419F0F701718293
S113107060820FB6F8940F9280912A078F5F809355
S11310802A078091830790918407892BD1F5709268
S113109084076092830780912A07813009F040C059
S11310A08FE597E00E941A0288E697E00E941A02F0
S11310B081E797E00E941A028AE797E00E941A02E9
S11310C086E597E00E941A028DE497E00E941A02D6
S11310D080E497E00E941A0287E397E00E941A02D4
S11310E08DE297E00E941A0286E597E090934C0700
S11310F080934B078DE497E090934A0780934907C8
S11311000FC08091260781110BC0E0918307F091F5
S113111084078689081720F07092840760928307F9
S1131120809122078F5F80932207F3018689909133
S11311302707981710F48093270790E09C01220F4B
S1131140331F220F331F220F331F820F931FBE0141
S1131150815A984F0E942C020F900FBE809126074F
S1131160882359F0E0918307F091840786898017DA
S113117030F40E944A0381E005C081E003C081E0AD
S113118001C08FEFDF91CF911F910F91FF90EF90EE
S1131190DF90CF90BF90AF909F908F907F906F9093
S11311A05F904F900895AF92BF92CF92DF92EF92EB
S11311B0FF920F93A12CB12CC12CD12C0F2EFBE24A
S11311C0EF2EF7E0FF2EF02D00E020E030E045E5C3
S11311D050E067E371E087E69AE00E94C00781303F
S11311E049F4F8948093260710922907109228074F
S11311F00E9410030F91FF90EF90DF90CF90BF906B
S1131200AF900895809121078F5F809321070895FF
S1131210CF92DF92EF92FF920F931F93CF93DF93BE
S11312208091210781119BC0809128079091290703
S113123001969093290780932807E0902807F0905F
S11312402907E114F104B9F480914B0790914C07FC
S11312502091490730914A0730934C0720934B075C
S113126090934A0780934907809123078F5F809367
S113127023070E946A078091030190910401E816F4
S1131280F90610F4D12C53C0D12CCC24C394E09192
S11312904B07F0914C078081811107C08FEF9FEFBE
S11312A0909304018093030142C0E0914B07F091B5
S11312B04C070580F681E02DC681D7818A819B8108
S11312C0E816F90628F490930401809303012FC0D3
S11312D08E010E5F1F4FC8010E947E028C899D897A
S11312E0892B21F0CE010C960E947E028E8990916A
S11312F02707981710F48093270790E09C01220F8A
S1131300331F220F331F220F331F820F931FB80185
S1131310815A984F0E942C02E0918307F091840730
S11313209E898689981708F4B2CFDC2CB0CFE0915F
S11313308307F0918407868990E0FC01EE0FFF1F7C
S1131340EE0FFF1FEE0FFF1F8E0F9F1FFC01E15AD0
S1131350F84F8081823048F0DD24D39406C0809118
S113136025078F5F80932507D12C8091240788233C
S113137011F0DD24D3948D2DDF91CF911F910F9126
S1131380FF90EF90DF90CF900895DF92EF92FF925D
S11313900F931F93CF93DF930FB6F8940F9280911E
S11313A0210781508093210780912107811162C018
S11313B080912A07811133C060C0D7011596ED9141
S11313C0FC911697C681D781CE010C960E947E02AD
S11313D08E010E5F1F4FC8010E947E028E8990917C
S11313E02707981710F48093270790E09C01220F99
S11313F0331F220F331F220F331F820F931FB80195
S1131400815A984F0E942C02E0918307F09184073F
S11314109E898689981758F0D092240708C00F2E09
S1131420F0E4EF2EF7E0FF2EF02DDD24D394F70146
S113143080818111C2CF80912507882399F0809102
S11314402507882379F0C1E00E9408098111C0931F
S113145024078091250781508093250780912507D3
S11314608111F2CF80912407813031F40E944A0324
S113147081E003C080E001C080E00F900FBEDF91E7
S1131480CF911F910F91FF90EF90DF900895CF932C
S1131490DF93EC01892BB1F00E94020980912807A7
S11314A090912907C80FD91F8091830790918407D1
S11314B002960E947E02CE010E9489070E94C509FD
S11314C0811102C00E944A03DF91CF91089507E37E
S11314D017E00F2EFFE5EF2EF7E0FF2EF02D29C0C9
S11314E00E940209D801CC910E94C509CC2309F1BC
S11314F00FB6F8940F92D8011596ED91FC911697BA
S1131500C681D781CE0102960E947E0280912A076D
S1131510815080932A078091360781508093360743
S11315200F900FBE8F89988D0E949C04CE010E945B
S11315309C04809136078111D3CFF70180818230DA
S1131540C0F30E944A03F5CF80912107882321F03C
S113155081E080932407089510922407809127073F
S113156090E0FC01EE0FFF1FEE0FFF1FEE0FFF1FB9
S11315708E0F9F1FFC01E15AF84F8081811117C023
S1131580809127078150809327078091270790E057
S1131590FC01EE0FFF1FEE0FFF1FEE0FFF1F8E0F5C
S11315A09F1FFC01E15AF84F8081882349F3809101
S11315B0270790E09C01220F331F220F331F220FB5
S11315C0331F280F391FD901A15AB84F1196ED9135
S11315D0FC9112970280F381E02D1296FC93EE9316
S11315E011972E59384FE217F30729F422813381DA
S11315F0FD0132832183FC01EE0FFF1FEE0FFF1F5D
S1131600EE0FFF1F8E0F9F1FFC01E15AF84F018060
S1131610F281E02D868197819093840780938307DC
S11316200895CF93DF93EB01609183077091840752
S1131630645F7F4F0E944D028091830790918407DD
S113164002960E947E02CF3F8FEFD80759F4609133
S11316508307709184076E5F7F4F8DE297E00E944D
S11316602C0208C080912807909129078C0F9D1F98
S11316700E948907DF91CF9108950F931F93CF9311
S1131680DF93DC011596ED91FC911697C681D78105
S11316908E01045F1F4FC8010E947E0280912107C2
S11316A081111CC00A501109C8010E947E028E8952
S11316B090912707981710F48093270790E09C01D6
S11316C0220F331F220F331F220F331F820F931F4A
S11316D0B801815A984F0E942C0205C0B80180E4D9
S11316E097E00E942C02E0918307F09184079E8981
S11316F08689891720F481E08093240701C080E063
S1131700DF91CF911F910F91089520912307FC0140
S1131710208320912807309129073283218308955B
S11317200FB6F8940F924091280750912907DB01D6
S11317302D913C912F3FBFEF3B0719F1E091230717
S1131740DC01FC91FE1739F01196ED91FC91129792
S11317504E175F07C0F4DC011196ED91FC911297CE
S1131760DA01AE1BBF0BA217B30778F4DB01E41B4D
S1131770F50B2E0F3F1F2D933C930E94850B80E0A9
S113178005C080E003C081E001C081E00F900FBE7E
S1131790089581E08093240708950F931F93CF93B6
S11317A0DF93FC01892B09F455C02689A091830796
S11317B0B091840756968C91281708F04BC0848505
S11317C09585992364F0A0918307B0918407569678
S11317D03C9184E090E0831B91099587848730E0F5
S11317E0C901880F991F880F991F880F991F280F07
S11317F0391F215A384F828593858217930719F52B
S11318008F01EF012296CE010E947E02E0918307B0
S1131810F09184078689F801868B909127079817A1
S113182010F48093270790E09C01220F331F220FAE
S1131830331F220F331F820F931FBE01815A984F0B
S11318400E942C0207C0A0918307B091840756968A
S11318508C91868BDF91CF911F910F9108950F93F7
S11318601F93CF93DF93FC01892B79F182A18150DF
S113187082A3268991A1291751F181112AC0EF0170
S11318808F010E5F1F4FC8010E947E0289A18E8BBB
S113189024E030E0281B31093D872C8790912707ED
S11318A0981710F48093270790E09C01220F331FB0
S11318B0220F331F220F331F820F931FB801815A47
S11318C0984F0E942C0281E005C080E003C080E0B4
S11318D001C080E0DF91CF911F910F910895809115
S11318E0830790918407892B39F0E0918307F09165
S11318F0840782A18F5F82A38091830790918407DC
S113190008951F920F920FB60F9211242F933F93B5
S11319104F935F936F937F938F939F93AF93BF93F3
S1131920EF93FF938091850790918607892B29F087
S1131930E0918507F09186070995FF91EF91BF919A
S1131940AF919F918F917F916F915F914F913F9153
S11319502F910F900FBE0F901F9018951F920F920A
S11319600FB60F9211242F933F934F935F936F936E
S11319707F938F939F93AF93BF93EF93FF93809144
S1131980870790918807892B29F0E0918707F091C8
S113199088070995FF91EF91BF91AF919F918F9126
S11319A07F916F915F914F913F912F910F900FBE57
S11319B00F901F901895FB01DC0102C001900D925D
S11319C041505040D8F708954532510520F4423033
S11319D010F00C94EF0CFB011082CB010895BB278F
S11319E04A3031F4992322F4BDE2909581959F4FBA
S11319F00C94FB0CBB27FB015527AA27880F991FC2
S1131A00AA1FA41710F0A41B83955051B9F7A05D29
S1131A10AA3308F0A95DA193009779F7B111B193A6
S1131A201192CB010C94140DDC01FC01672F719110
S1131A307723E1F7329704C07C916D9370836291B0
S10F1A40AE17BF07C8F30895F894FFCF59
S1131A4C01DB05FFFF54656D703A200055533A20B5
S1131A5C004D4F544F52204F4E007461736B5F4CCA
S1131A6C4344007461736B5F50574D007472756519
S10F1A7C0066616C73650049444C450031
S9030000FC
